{
  "transactions": [
    {
      "hash": "0x680cfbeacf47596553665421d0e762a2ed14866f604edd3c39367bf31fbd5e51",
      "transactionType": "CALL",
      "contractName": null,
      "contractAddress": "0xB464F4582e62F6eB3CF506E4135f92BD198EB03E",
      "function": "mint(address)",
      "arguments": [
        "0x9A3A5EdDDFEe1E3A1BBef6Fdf0850B10D4979405"
      ],
      "transaction": {
        "type": "0x02",
        "from": "0x9a3a5edddfee1e3a1bbef6fdf0850b10d4979405",
        "to": "0xb464f4582e62f6eb3cf506e4135f92bd198eb03e",
        "gas": "0x1327c",
        "value": "0x0",
        "data": "0x6a6278420000000000000000000000009a3a5edddfee1e3a1bbef6fdf0850b10d4979405",
        "nonce": "0x59",
        "accessList": []
      },
      "additionalContracts": [],
      "isFixedGasLimit": false
    },
    {
      "hash": "0x4e6de05c9c08eb49a509a22d092297a66a9babb24daf18429957a966982183ac",
      "transactionType": "CALL",
      "contractName": null,
      "contractAddress": "0xB464F4582e62F6eB3CF506E4135f92BD198EB03E",
      "function": "mint(address)",
      "arguments": [
        "0x9A3A5EdDDFEe1E3A1BBef6Fdf0850B10D4979405"
      ],
      "transaction": {
        "type": "0x02",
        "from": "0x9a3a5edddfee1e3a1bbef6fdf0850b10d4979405",
        "to": "0xb464f4582e62f6eb3cf506e4135f92bd198eb03e",
        "gas": "0x1327c",
        "value": "0x0",
        "data": "0x6a6278420000000000000000000000009a3a5edddfee1e3a1bbef6fdf0850b10d4979405",
        "nonce": "0x5a",
        "accessList": []
      },
      "additionalContracts": [],
      "isFixedGasLimit": false
    },
    {
      "hash": "0x46412d2b3ad6f510b375a3534de6eb568333b4219c653051825d41b1c5816647",
      "transactionType": "CALL",
      "contractName": null,
      "contractAddress": "0xB464F4582e62F6eB3CF506E4135f92BD198EB03E",
      "function": "mint(address)",
      "arguments": [
        "0x9A3A5EdDDFEe1E3A1BBef6Fdf0850B10D4979405"
      ],
      "transaction": {
        "type": "0x02",
        "from": "0x9a3a5edddfee1e3a1bbef6fdf0850b10d4979405",
        "to": "0xb464f4582e62f6eb3cf506e4135f92bd198eb03e",
        "gas": "0x1327c",
        "value": "0x0",
        "data": "0x6a6278420000000000000000000000009a3a5edddfee1e3a1bbef6fdf0850b10d4979405",
        "nonce": "0x5b",
        "accessList": []
      },
      "additionalContracts": [],
      "isFixedGasLimit": false
    },
    {
      "hash": "0x5c6f0e036b2598020b8f486a595d98cfbf186092350e240ea4515a282eedbb4d",
      "transactionType": "CALL",
      "contractName": null,
      "contractAddress": "0xB464F4582e62F6eB3CF506E4135f92BD198EB03E",
      "function": "mint(address)",
      "arguments": [
        "0x9A3A5EdDDFEe1E3A1BBef6Fdf0850B10D4979405"
      ],
      "transaction": {
        "type": "0x02",
        "from": "0x9a3a5edddfee1e3a1bbef6fdf0850b10d4979405",
        "to": "0xb464f4582e62f6eb3cf506e4135f92bd198eb03e",
        "gas": "0x1327c",
        "value": "0x0",
        "data": "0x6a6278420000000000000000000000009a3a5edddfee1e3a1bbef6fdf0850b10d4979405",
        "nonce": "0x5c",
        "accessList": []
      },
      "additionalContracts": [],
      "isFixedGasLimit": false
    },
    {
      "hash": "0x55c4fdcaca50b51bf2057adeb0f3efcd8ab3901f1b61fc0aca0e34ebd05cd288",
      "transactionType": "CALL",
      "contractName": "RegistrationModule",
      "contractAddress": "0x0baA92F82d8992Ff152047f29084079c263BE7F7",
      "function": "registerRootIp(uint256,address,uint256)",
      "arguments": [
        "0",
        "0xB464F4582e62F6eB3CF506E4135f92BD198EB03E",
        "13"
      ],
      "transaction": {
        "type": "0x02",
        "from": "0x9a3a5edddfee1e3a1bbef6fdf0850b10d4979405",
        "to": "0x0baa92f82d8992ff152047f29084079c263be7f7",
        "gas": "0x3e604",
        "value": "0x0",
        "data": "0xa38f3a7b0000000000000000000000000000000000000000000000000000000000000000000000000000000000000000b464f4582e62f6eb3cf506e4135f92bd198eb03e000000000000000000000000000000000000000000000000000000000000000d",
        "nonce": "0x5d",
        "accessList": []
      },
      "additionalContracts": [
        {
          "transactionType": "CREATE2",
          "address": "0x6b681bA4D4Ac86019137Bca1D1D4DeF232A9DCDD",
          "initCode": "0x3d60ad80600a3d3981f3363d3d373d3d3d363d7367df68ae71e9ebbd9c6ddfc18b7983540fee6eb95af43d82803e903d91602b57fd5bf300000000000000000000000000000000000000000000000000000000000000000000000000000000000000000000000000000000000000000000000000aa36a7000000000000000000000000b464f4582e62f6eb3cf506e4135f92bd198eb03e000000000000000000000000000000000000000000000000000000000000000d"
        }
      ],
      "isFixedGasLimit": false
    },
    {
      "hash": "0x9af2eda1cf46aeb34cb221c7ddd3eead203e9d65c04afc96615d763d03248f8a",
      "transactionType": "CALL",
      "contractName": "RegistrationModule",
      "contractAddress": "0x0baA92F82d8992Ff152047f29084079c263BE7F7",
      "function": "registerRootIp(uint256,address,uint256)",
      "arguments": [
        "0",
        "0xB464F4582e62F6eB3CF506E4135f92BD198EB03E",
        "14"
      ],
      "transaction": {
        "type": "0x02",
        "from": "0x9a3a5edddfee1e3a1bbef6fdf0850b10d4979405",
        "to": "0x0baa92f82d8992ff152047f29084079c263be7f7",
        "gas": "0x3e604",
        "value": "0x0",
        "data": "0xa38f3a7b0000000000000000000000000000000000000000000000000000000000000000000000000000000000000000b464f4582e62f6eb3cf506e4135f92bd198eb03e000000000000000000000000000000000000000000000000000000000000000e",
        "nonce": "0x5e",
        "accessList": []
      },
      "additionalContracts": [
        {
          "transactionType": "CREATE2",
          "address": "0x56779DB6bB1ab5EBEa2802ac881Af91f0A8f1dA4",
          "initCode": "0x3d60ad80600a3d3981f3363d3d373d3d3d363d7367df68ae71e9ebbd9c6ddfc18b7983540fee6eb95af43d82803e903d91602b57fd5bf300000000000000000000000000000000000000000000000000000000000000000000000000000000000000000000000000000000000000000000000000aa36a7000000000000000000000000b464f4582e62f6eb3cf506e4135f92bd198eb03e000000000000000000000000000000000000000000000000000000000000000e"
        }
      ],
      "isFixedGasLimit": false
    },
    {
      "hash": "0x9d9d17f6d78fb59dc59609101e0a2537ab6e7d682d07d7817f37882914583916",
      "transactionType": "CALL",
      "contractName": null,
      "contractAddress": "0xB76441f5802DBfA7244C904871F3747E371C3C78",
      "function": "setGlobalPermission(address,address,bytes4,uint8)",
      "arguments": [
        "0x0baA92F82d8992Ff152047f29084079c263BE7F7",
        "0x32f0471E404096B978248d0ECE3A8998D87a4b67",
        "0x0000000000000000000000000000000000000000000000000000000000000000",
        "1"
      ],
      "transaction": {
        "type": "0x02",
        "from": "0x9a3a5edddfee1e3a1bbef6fdf0850b10d4979405",
        "to": "0xb76441f5802dbfa7244c904871f3747e371c3c78",
        "gas": "0x8fed",
        "value": "0x0",
        "data": "0x9f1ac51d0000000000000000000000000baa92f82d8992ff152047f29084079c263be7f700000000000000000000000032f0471e404096b978248d0ece3a8998d87a4b6700000000000000000000000000000000000000000000000000000000000000000000000000000000000000000000000000000000000000000000000000000001",
        "nonce": "0x5f",
        "accessList": []
      },
      "additionalContracts": [],
      "isFixedGasLimit": false
    },
    {
      "hash": "0x43307f7cd9a1d8224c4e10a0349d2659dca63728355d82d040a81641eb5ff5cf",
      "transactionType": "CALL",
      "contractName": "IPMetadataProvider",
      "contractAddress": "0x6b681bA4D4Ac86019137Bca1D1D4DeF232A9DCDD",
      "function": null,
      "arguments": null,
      "transaction": {
        "type": "0x02",
        "from": "0x9a3a5edddfee1e3a1bbef6fdf0850b10d4979405",
        "to": "0x6b681ba4d4ac86019137bca1d1d4def232a9dcdd",
        "gas": "0x2f4b8",
        "value": "0x0",
        "data": "0xb61d27f6000000000000000000000000b76441f5802dbfa7244c904871f3747e371c3c780000000000000000000000000000000000000000000000000000000000000000000000000000000000000000000000000000000000000000000000000000006000000000000000000000000000000000000000000000000000000000000000a47bac65fd0000000000000000000000006b681ba4d4ac86019137bca1d1d4def232a9dcdd0000000000000000000000009a3a5edddfee1e3a1bbef6fdf0850b10d497940500000000000000000000000032f0471e404096b978248d0ece3a8998d87a4b670000000000000000000000000000000000000000000000000000000000000000000000000000000000000000000000000000000000000000000000000000000100000000000000000000000000000000000000000000000000000000",
        "nonce": "0x60",
        "accessList": []
      },
      "additionalContracts": [],
      "isFixedGasLimit": false
    }
  ],
  "receipts": [
    {
      "transactionHash": "0x680cfbeacf47596553665421d0e762a2ed14866f604edd3c39367bf31fbd5e51",
      "transactionIndex": "0xc",
      "blockHash": "0xa6525fd2a33769e4f10008d7648ef338475262a83bd521f38a70103c358893df",
      "blockNumber": "0x4ec4ff",
      "from": "0x9A3A5EdDDFEe1E3A1BBef6Fdf0850B10D4979405",
      "to": "0xB464F4582e62F6eB3CF506E4135f92BD198EB03E",
      "cumulativeGasUsed": "0xe6e27",
      "gasUsed": "0xdde4",
      "contractAddress": null,
      "logs": [
        {
          "address": "0xB464F4582e62F6eB3CF506E4135f92BD198EB03E",
          "topics": [
            "0xddf252ad1be2c89b69c2b068fc378daa952ba7f163c4a11628f55a4df523b3ef",
            "0x0000000000000000000000000000000000000000000000000000000000000000",
            "0x0000000000000000000000009a3a5edddfee1e3a1bbef6fdf0850b10d4979405",
            "0x000000000000000000000000000000000000000000000000000000000000000d"
          ],
          "data": "0x",
          "blockHash": "0xa6525fd2a33769e4f10008d7648ef338475262a83bd521f38a70103c358893df",
          "blockNumber": "0x4ec4ff",
          "transactionHash": "0x680cfbeacf47596553665421d0e762a2ed14866f604edd3c39367bf31fbd5e51",
          "transactionIndex": "0xc",
          "logIndex": "0xe",
          "removed": false
        }
      ],
      "status": "0x1",
      "logsBloom": "0x00000000000000000040000000000000000000000000000000000000000000000000000000000000000000000000000000000000000000000000000000000000000000000000000000000008000000000002000000000000008000000000000000000000020000001000000000000800000000000000000000000010000000000000000000000000000000000000000000000000001000000000000000000000000000000000000000000000000000000000000000200000008000000000000000000002000000000000000000000000000000000000000000000000000020020000000000000000000000000000000000000000000000000000000020000000",
      "type": "0x2",
      "effectiveGasPrice": "0xbbb62dc8"
    },
    {
      "transactionHash": "0x4e6de05c9c08eb49a509a22d092297a66a9babb24daf18429957a966982183ac",
      "transactionIndex": "0xd",
      "blockHash": "0xa6525fd2a33769e4f10008d7648ef338475262a83bd521f38a70103c358893df",
      "blockNumber": "0x4ec4ff",
      "from": "0x9A3A5EdDDFEe1E3A1BBef6Fdf0850B10D4979405",
      "to": "0xB464F4582e62F6eB3CF506E4135f92BD198EB03E",
      "cumulativeGasUsed": "0xf4c0b",
      "gasUsed": "0xdde4",
      "contractAddress": null,
      "logs": [
        {
          "address": "0xB464F4582e62F6eB3CF506E4135f92BD198EB03E",
          "topics": [
            "0xddf252ad1be2c89b69c2b068fc378daa952ba7f163c4a11628f55a4df523b3ef",
            "0x0000000000000000000000000000000000000000000000000000000000000000",
            "0x0000000000000000000000009a3a5edddfee1e3a1bbef6fdf0850b10d4979405",
            "0x000000000000000000000000000000000000000000000000000000000000000e"
          ],
          "data": "0x",
          "blockHash": "0xa6525fd2a33769e4f10008d7648ef338475262a83bd521f38a70103c358893df",
          "blockNumber": "0x4ec4ff",
          "transactionHash": "0x4e6de05c9c08eb49a509a22d092297a66a9babb24daf18429957a966982183ac",
          "transactionIndex": "0xd",
          "logIndex": "0xf",
          "removed": false
        }
      ],
      "status": "0x1",
      "logsBloom": "0x00000000000000000000000000000000000000000000000000000000000000000000000000000000000000000000000000000000000000000000000000000000000000000000000800000008000000000000000000000000008000000000000000000000020000001000000000000800000000000000000000000010000000000000000000000000000000000000000008000000001000000000000000000000000000000000000000000000000000000000000000200020008000000000000000000002000000000000000000000000000000000000000000000000000020000000000000000000000000000000000000000000000000000000000020000000",
      "type": "0x2",
      "effectiveGasPrice": "0xbbb62dc8"
    },
    {
      "transactionHash": "0x46412d2b3ad6f510b375a3534de6eb568333b4219c653051825d41b1c5816647",
      "transactionIndex": "0xe",
      "blockHash": "0xa6525fd2a33769e4f10008d7648ef338475262a83bd521f38a70103c358893df",
      "blockNumber": "0x4ec4ff",
      "from": "0x9A3A5EdDDFEe1E3A1BBef6Fdf0850B10D4979405",
      "to": "0xB464F4582e62F6eB3CF506E4135f92BD198EB03E",
      "cumulativeGasUsed": "0x1029ef",
      "gasUsed": "0xdde4",
      "contractAddress": null,
      "logs": [
        {
          "address": "0xB464F4582e62F6eB3CF506E4135f92BD198EB03E",
          "topics": [
            "0xddf252ad1be2c89b69c2b068fc378daa952ba7f163c4a11628f55a4df523b3ef",
            "0x0000000000000000000000000000000000000000000000000000000000000000",
            "0x0000000000000000000000009a3a5edddfee1e3a1bbef6fdf0850b10d4979405",
            "0x000000000000000000000000000000000000000000000000000000000000000f"
          ],
          "data": "0x",
          "blockHash": "0xa6525fd2a33769e4f10008d7648ef338475262a83bd521f38a70103c358893df",
          "blockNumber": "0x4ec4ff",
          "transactionHash": "0x46412d2b3ad6f510b375a3534de6eb568333b4219c653051825d41b1c5816647",
          "transactionIndex": "0xe",
          "logIndex": "0x10",
          "removed": false
        }
      ],
      "status": "0x1",
      "logsBloom": "0x00000000000000000000000000000000000000000000000000000000000000000000000000000000000000000000000000000000000000000000000000000000000000000000000000000008000000000000000000000000008000000002000000000000020000001000000000000800000000000000000000000010000000000000000000000800000000000000000000000000001000000000000000000000000000000000000000000000000000000000000000200000008000000000000000000002000000000000000000000000000000000000000000000000000020000000000200000000000000000000000000000000000000000000000020000000",
      "type": "0x2",
      "effectiveGasPrice": "0xbbb62dc8"
    },
    {
      "transactionHash": "0x5c6f0e036b2598020b8f486a595d98cfbf186092350e240ea4515a282eedbb4d",
      "transactionIndex": "0xf",
      "blockHash": "0xa6525fd2a33769e4f10008d7648ef338475262a83bd521f38a70103c358893df",
      "blockNumber": "0x4ec4ff",
      "from": "0x9A3A5EdDDFEe1E3A1BBef6Fdf0850B10D4979405",
      "to": "0xB464F4582e62F6eB3CF506E4135f92BD198EB03E",
      "cumulativeGasUsed": "0x1107d3",
      "gasUsed": "0xdde4",
      "contractAddress": null,
      "logs": [
        {
          "address": "0xB464F4582e62F6eB3CF506E4135f92BD198EB03E",
          "topics": [
            "0xddf252ad1be2c89b69c2b068fc378daa952ba7f163c4a11628f55a4df523b3ef",
            "0x0000000000000000000000000000000000000000000000000000000000000000",
            "0x0000000000000000000000009a3a5edddfee1e3a1bbef6fdf0850b10d4979405",
            "0x0000000000000000000000000000000000000000000000000000000000000010"
          ],
          "data": "0x",
          "blockHash": "0xa6525fd2a33769e4f10008d7648ef338475262a83bd521f38a70103c358893df",
          "blockNumber": "0x4ec4ff",
          "transactionHash": "0x5c6f0e036b2598020b8f486a595d98cfbf186092350e240ea4515a282eedbb4d",
          "transactionIndex": "0xf",
          "logIndex": "0x11",
          "removed": false
        }
      ],
      "status": "0x1",
      "logsBloom": "0x00000000100000000000000000000000000000000000000000000000000000000000000000000000000000000000000000000000000000000000000000000000000000000000000000000008000000000000000000000000008000000000000000000000020000001000000000000800000000000000000000000010040000000000000000000000000000000000000000000100001000000000000000000000000000000000000000000000000000000000000000200000008000000000000000000002000000000000000000000000000000000000000000000000000020000000000000000000000000000000000000000000000000000000000020000000",
      "type": "0x2",
      "effectiveGasPrice": "0xbbb62dc8"
    },
    {
      "transactionHash": "0x55c4fdcaca50b51bf2057adeb0f3efcd8ab3901f1b61fc0aca0e34ebd05cd288",
      "transactionIndex": "0x10",
      "blockHash": "0xa6525fd2a33769e4f10008d7648ef338475262a83bd521f38a70103c358893df",
      "blockNumber": "0x4ec4ff",
      "from": "0x9A3A5EdDDFEe1E3A1BBef6Fdf0850B10D4979405",
      "to": "0x0baA92F82d8992Ff152047f29084079c263BE7F7",
      "cumulativeGasUsed": "0x13da6c",
      "gasUsed": "0x2d299",
      "contractAddress": null,
      "logs": [
        {
          "address": "0x000000006551c19487814612e58FE06813775758",
          "topics": [
            "0x79f19b3655ee38b1ce526556b7731a20c8f218fbda4a3990b6cc4172fdf88722",
            "0x00000000000000000000000067df68ae71e9ebbd9c6ddfc18b7983540fee6eb9",
            "0x000000000000000000000000b464f4582e62f6eb3cf506e4135f92bd198eb03e",
            "0x000000000000000000000000000000000000000000000000000000000000000d"
          ],
          "data": "0x0000000000000000000000006b681ba4d4ac86019137bca1d1d4def232a9dcdd00000000000000000000000000000000000000000000000000000000000000000000000000000000000000000000000000000000000000000000000000aa36a7",
          "blockHash": "0xa6525fd2a33769e4f10008d7648ef338475262a83bd521f38a70103c358893df",
          "blockNumber": "0x4ec4ff",
          "transactionHash": "0x55c4fdcaca50b51bf2057adeb0f3efcd8ab3901f1b61fc0aca0e34ebd05cd288",
          "transactionIndex": "0x10",
          "logIndex": "0x12",
          "removed": false
        },
        {
          "address": "0xA3067eb696e55F885aE229DF16e5fD75a739CCDF",
          "topics": [
            "0x5be70b68c8361762980ec7d425d79fd33f6d49cac8a498e6ddf514f995b987f7",
            "0x0000000000000000000000006b681ba4d4ac86019137bca1d1d4def232a9dcdd",
            "0x00000000000000000000000067df68ae71e9ebbd9c6ddfc18b7983540fee6eb9",
            "0x0000000000000000000000000000000000000000000000000000000000aa36a7"
          ],
          "data": "0x000000000000000000000000b464f4582e62f6eb3cf506e4135f92bd198eb03e000000000000000000000000000000000000000000000000000000000000000d",
          "blockHash": "0xa6525fd2a33769e4f10008d7648ef338475262a83bd521f38a70103c358893df",
          "blockNumber": "0x4ec4ff",
          "transactionHash": "0x55c4fdcaca50b51bf2057adeb0f3efcd8ab3901f1b61fc0aca0e34ebd05cd288",
          "transactionIndex": "0x10",
          "logIndex": "0x13",
          "removed": false
        },
        {
          "address": "0x57AE4356320e65fbab8679cC2FD05C0b9CA608D2",
          "topics": [
            "0xb0f8a29d221d596b0eb4fbccfafbd58102fe1bd92f55e6d5b19cd7393c1d577e",
            "0x0000000000000000000000000000000000000000000000000000000000aa36a7",
            "0x000000000000000000000000b464f4582e62f6eb3cf506e4135f92bd198eb03e",
            "0x000000000000000000000000000000000000000000000000000000000000000d"
          ],
          "data": "0x0000000000000000000000006b681ba4d4ac86019137bca1d1d4def232a9dcdd",
          "blockHash": "0xa6525fd2a33769e4f10008d7648ef338475262a83bd521f38a70103c358893df",
          "blockNumber": "0x4ec4ff",
          "transactionHash": "0x55c4fdcaca50b51bf2057adeb0f3efcd8ab3901f1b61fc0aca0e34ebd05cd288",
          "transactionIndex": "0x10",
          "logIndex": "0x14",
          "removed": false
        },
        {
          "address": "0x57AE4356320e65fbab8679cC2FD05C0b9CA608D2",
          "topics": [
            "0x45d82cad942fa2e4cfe12a8e0c0b8ecb938b1c95496042dc75f0ecf94cc794f2"
          ],
          "data": "0x0000000000000000000000006b681ba4d4ac86019137bca1d1d4def232a9dcdd0000000000000000000000006c88f438cbfd9866dcd067ffe18b951f19b968da",
          "blockHash": "0xa6525fd2a33769e4f10008d7648ef338475262a83bd521f38a70103c358893df",
          "blockNumber": "0x4ec4ff",
          "transactionHash": "0x55c4fdcaca50b51bf2057adeb0f3efcd8ab3901f1b61fc0aca0e34ebd05cd288",
          "transactionIndex": "0x10",
          "logIndex": "0x15",
          "removed": false
        },
        {
          "address": "0x57AE4356320e65fbab8679cC2FD05C0b9CA608D2",
          "topics": [
            "0xe8b4e5e3b3081bb5e138b90953bc4b8d4bd4a144a957791f2c1164211f3fffdc",
            "0x0000000000000000000000000000000000000000000000000000000000aa36a7",
            "0x000000000000000000000000b464f4582e62f6eb3cf506e4135f92bd198eb03e",
            "0x000000000000000000000000000000000000000000000000000000000000000d"
          ],
          "data": "0x0000000000000000000000006b681ba4d4ac86019137bca1d1d4def232a9dcdd0000000000000000000000006c88f438cbfd9866dcd067ffe18b951f19b968da",
          "blockHash": "0xa6525fd2a33769e4f10008d7648ef338475262a83bd521f38a70103c358893df",
          "blockNumber": "0x4ec4ff",
          "transactionHash": "0x55c4fdcaca50b51bf2057adeb0f3efcd8ab3901f1b61fc0aca0e34ebd05cd288",
          "transactionIndex": "0x10",
          "logIndex": "0x16",
          "removed": false
        },
        {
          "address": "0x0baA92F82d8992Ff152047f29084079c263BE7F7",
          "topics": [
            "0xa6e4d1983948888a2be7e084c14834fc01066c7b1173b1d505a1a882ae310a3e",
            "0x0000000000000000000000009a3a5edddfee1e3a1bbef6fdf0850b10d4979405",
            "0x0000000000000000000000006b681ba4d4ac86019137bca1d1d4def232a9dcdd",
            "0x0000000000000000000000000000000000000000000000000000000000000000"
          ],
          "data": "0x",
          "blockHash": "0xa6525fd2a33769e4f10008d7648ef338475262a83bd521f38a70103c358893df",
          "blockNumber": "0x4ec4ff",
          "transactionHash": "0x55c4fdcaca50b51bf2057adeb0f3efcd8ab3901f1b61fc0aca0e34ebd05cd288",
          "transactionIndex": "0x10",
          "logIndex": "0x17",
          "removed": false
        }
      ],
      "status": "0x1",
      "logsBloom": "0x44010000000000200040000400000004000080000000000100000004000800000000000000800000000000000000080002000000000000000040000000000008200000008000000000000000000000000002000000000000008080000000000000000000020000001000000000000800002000000000000000000002000020004000000000802000000000000000000000000000000000000000000000000000000000100000000000000000102000400800000000200000000000000200000000000000000100000010200000000000100000000000000000000001000020020000000000000000001004000000080000000000000000000000000000001100",
      "type": "0x2",
      "effectiveGasPrice": "0xbbb62dc8"
    },
    {
      "transactionHash": "0x9af2eda1cf46aeb34cb221c7ddd3eead203e9d65c04afc96615d763d03248f8a",
      "transactionIndex": "0x11",
      "blockHash": "0xa6525fd2a33769e4f10008d7648ef338475262a83bd521f38a70103c358893df",
      "blockNumber": "0x4ec4ff",
      "from": "0x9A3A5EdDDFEe1E3A1BBef6Fdf0850B10D4979405",
      "to": "0x0baA92F82d8992Ff152047f29084079c263BE7F7",
      "cumulativeGasUsed": "0x16ad05",
      "gasUsed": "0x2d299",
      "contractAddress": null,
      "logs": [
        {
          "address": "0x000000006551c19487814612e58FE06813775758",
          "topics": [
            "0x79f19b3655ee38b1ce526556b7731a20c8f218fbda4a3990b6cc4172fdf88722",
            "0x00000000000000000000000067df68ae71e9ebbd9c6ddfc18b7983540fee6eb9",
            "0x000000000000000000000000b464f4582e62f6eb3cf506e4135f92bd198eb03e",
            "0x000000000000000000000000000000000000000000000000000000000000000e"
          ],
          "data": "0x00000000000000000000000056779db6bb1ab5ebea2802ac881af91f0a8f1da400000000000000000000000000000000000000000000000000000000000000000000000000000000000000000000000000000000000000000000000000aa36a7",
          "blockHash": "0xa6525fd2a33769e4f10008d7648ef338475262a83bd521f38a70103c358893df",
          "blockNumber": "0x4ec4ff",
          "transactionHash": "0x9af2eda1cf46aeb34cb221c7ddd3eead203e9d65c04afc96615d763d03248f8a",
          "transactionIndex": "0x11",
          "logIndex": "0x18",
          "removed": false
        },
        {
          "address": "0xA3067eb696e55F885aE229DF16e5fD75a739CCDF",
          "topics": [
            "0x5be70b68c8361762980ec7d425d79fd33f6d49cac8a498e6ddf514f995b987f7",
            "0x00000000000000000000000056779db6bb1ab5ebea2802ac881af91f0a8f1da4",
            "0x00000000000000000000000067df68ae71e9ebbd9c6ddfc18b7983540fee6eb9",
            "0x0000000000000000000000000000000000000000000000000000000000aa36a7"
          ],
          "data": "0x000000000000000000000000b464f4582e62f6eb3cf506e4135f92bd198eb03e000000000000000000000000000000000000000000000000000000000000000e",
          "blockHash": "0xa6525fd2a33769e4f10008d7648ef338475262a83bd521f38a70103c358893df",
          "blockNumber": "0x4ec4ff",
          "transactionHash": "0x9af2eda1cf46aeb34cb221c7ddd3eead203e9d65c04afc96615d763d03248f8a",
          "transactionIndex": "0x11",
          "logIndex": "0x19",
          "removed": false
        },
        {
          "address": "0x57AE4356320e65fbab8679cC2FD05C0b9CA608D2",
          "topics": [
            "0xb0f8a29d221d596b0eb4fbccfafbd58102fe1bd92f55e6d5b19cd7393c1d577e",
            "0x0000000000000000000000000000000000000000000000000000000000aa36a7",
            "0x000000000000000000000000b464f4582e62f6eb3cf506e4135f92bd198eb03e",
            "0x000000000000000000000000000000000000000000000000000000000000000e"
          ],
          "data": "0x00000000000000000000000056779db6bb1ab5ebea2802ac881af91f0a8f1da4",
          "blockHash": "0xa6525fd2a33769e4f10008d7648ef338475262a83bd521f38a70103c358893df",
          "blockNumber": "0x4ec4ff",
          "transactionHash": "0x9af2eda1cf46aeb34cb221c7ddd3eead203e9d65c04afc96615d763d03248f8a",
          "transactionIndex": "0x11",
          "logIndex": "0x1a",
          "removed": false
        },
        {
          "address": "0x57AE4356320e65fbab8679cC2FD05C0b9CA608D2",
          "topics": [
            "0x45d82cad942fa2e4cfe12a8e0c0b8ecb938b1c95496042dc75f0ecf94cc794f2"
          ],
          "data": "0x00000000000000000000000056779db6bb1ab5ebea2802ac881af91f0a8f1da40000000000000000000000006c88f438cbfd9866dcd067ffe18b951f19b968da",
          "blockHash": "0xa6525fd2a33769e4f10008d7648ef338475262a83bd521f38a70103c358893df",
          "blockNumber": "0x4ec4ff",
          "transactionHash": "0x9af2eda1cf46aeb34cb221c7ddd3eead203e9d65c04afc96615d763d03248f8a",
          "transactionIndex": "0x11",
          "logIndex": "0x1b",
          "removed": false
        },
        {
          "address": "0x57AE4356320e65fbab8679cC2FD05C0b9CA608D2",
          "topics": [
            "0xe8b4e5e3b3081bb5e138b90953bc4b8d4bd4a144a957791f2c1164211f3fffdc",
            "0x0000000000000000000000000000000000000000000000000000000000aa36a7",
            "0x000000000000000000000000b464f4582e62f6eb3cf506e4135f92bd198eb03e",
            "0x000000000000000000000000000000000000000000000000000000000000000e"
          ],
          "data": "0x00000000000000000000000056779db6bb1ab5ebea2802ac881af91f0a8f1da40000000000000000000000006c88f438cbfd9866dcd067ffe18b951f19b968da",
          "blockHash": "0xa6525fd2a33769e4f10008d7648ef338475262a83bd521f38a70103c358893df",
          "blockNumber": "0x4ec4ff",
          "transactionHash": "0x9af2eda1cf46aeb34cb221c7ddd3eead203e9d65c04afc96615d763d03248f8a",
          "transactionIndex": "0x11",
          "logIndex": "0x1c",
          "removed": false
        },
        {
          "address": "0x0baA92F82d8992Ff152047f29084079c263BE7F7",
          "topics": [
            "0xa6e4d1983948888a2be7e084c14834fc01066c7b1173b1d505a1a882ae310a3e",
            "0x0000000000000000000000009a3a5edddfee1e3a1bbef6fdf0850b10d4979405",
            "0x00000000000000000000000056779db6bb1ab5ebea2802ac881af91f0a8f1da4",
            "0x0000000000000000000000000000000000000000000000000000000000000000"
          ],
          "data": "0x",
          "blockHash": "0xa6525fd2a33769e4f10008d7648ef338475262a83bd521f38a70103c358893df",
          "blockNumber": "0x4ec4ff",
          "transactionHash": "0x9af2eda1cf46aeb34cb221c7ddd3eead203e9d65c04afc96615d763d03248f8a",
          "transactionIndex": "0x11",
          "logIndex": "0x1d",
          "removed": false
        }
      ],
      "status": "0x1",
      "logsBloom": "0x44010000000000200000000400000004000080000100000000000004000800000000000000800000000000000000080002000000000000000040000000000008200000008000000800000000000000000000000000000000008080000000000000000000020000021000000000000800002000000000000000000002000000004000000000802000000000000000000008000000000000000000000000000000000400100000000000000000102000400800000000200020000000000200000000000000000100000010200000000000100000000000000000000001000020000000000000000000001004000000080000000000000000000000000000001100",
      "type": "0x2",
      "effectiveGasPrice": "0xbbb62dc8"
    },
    {
      "transactionHash": "0x9d9d17f6d78fb59dc59609101e0a2537ab6e7d682d07d7817f37882914583916",
      "transactionIndex": "0x12",
      "blockHash": "0xa6525fd2a33769e4f10008d7648ef338475262a83bd521f38a70103c358893df",
      "blockNumber": "0x4ec4ff",
      "from": "0x9A3A5EdDDFEe1E3A1BBef6Fdf0850B10D4979405",
      "to": "0xB76441f5802DBfA7244C904871F3747E371C3C78",
      "cumulativeGasUsed": "0x170f6f",
      "gasUsed": "0x626a",
      "contractAddress": null,
      "logs": [],
      "status": "0x1",
      "logsBloom": "0x00000000000000000000000000000000000000000000000000000000000000000000000000000000000000000000000000000000000000000000000000000000000000000000000000000000000000000000000000000000000000000000000000000000000000000000000000000000000000000000000000000000000000000000000000000000000000000000000000000000000000000000000000000000000000000000000000000000000000000000000000000000000000000000000000000000000000000000000000000000000000000000000000000000000000000000000000000000000000000000000000000000000000000000000000000000",
      "type": "0x2",
      "effectiveGasPrice": "0xbbb62dc8"
    },
    {
      "transactionHash": "0x43307f7cd9a1d8224c4e10a0349d2659dca63728355d82d040a81641eb5ff5cf",
      "transactionIndex": "0x13",
      "blockHash": "0xa6525fd2a33769e4f10008d7648ef338475262a83bd521f38a70103c358893df",
      "blockNumber": "0x4ec4ff",
      "from": "0x9A3A5EdDDFEe1E3A1BBef6Fdf0850B10D4979405",
      "to": "0x6b681bA4D4Ac86019137Bca1D1D4DeF232A9DCDD",
      "cumulativeGasUsed": "0x1914da",
      "gasUsed": "0x2056b",
      "contractAddress": null,
      "logs": [
        {
          "address": "0xB76441f5802DBfA7244C904871F3747E371C3C78",
          "topics": [
            "0x8f0fb229f51592112b01916daccbee10c2a8dc2c1c81d2138c12060fbcfac88a",
            "0x0000000000000000000000006b681ba4d4ac86019137bca1d1d4def232a9dcdd",
            "0x0000000000000000000000009a3a5edddfee1e3a1bbef6fdf0850b10d4979405",
            "0x00000000000000000000000032f0471e404096b978248d0ece3a8998d87a4b67"
          ],
          "data": "0x00000000000000000000000000000000000000000000000000000000000000000000000000000000000000000000000000000000000000000000000000000001",
          "blockHash": "0xa6525fd2a33769e4f10008d7648ef338475262a83bd521f38a70103c358893df",
          "blockNumber": "0x4ec4ff",
          "transactionHash": "0x43307f7cd9a1d8224c4e10a0349d2659dca63728355d82d040a81641eb5ff5cf",
          "transactionIndex": "0x13",
          "logIndex": "0x1e",
          "removed": false
        }
      ],
      "status": "0x1",
      "logsBloom": "0x00000000000000000000000000000000000000000000000100000000000000000010000000000000000000000000000000000000000000000000000000000000000000000000000000000000000000000000000000000000408000000000000000000000000000001000000000080000000000000000000000000002000020000000000000000000000000000000000008100000000000000000000000000000000000000000000000000008000000000000000000200000000000000000000000000000000000000108000000000000000000000000000000000000000000000000000000000000000800000000000000000000000000000000000000000000",
      "type": "0x2",
      "effectiveGasPrice": "0xbbb62dc8"
    }
  ],
  "libraries": [],
  "pending": [],
  "returns": {},
  "timestamp": 1706335601,
  "chain": 11155111,
  "multi": false,
  "commit": "8836092"
}