{
  "transactions": [
    {
      "hash": "0xdaa1a819ac2ddf259ab5778ed271a66188480a72fa77e3b2d79ee7782ff8fd70",
      "transactionType": "CALL",
      "contractName": null,
      "contractAddress": "0xB464F4582e62F6eB3CF506E4135f92BD198EB03E",
      "function": "mint(address)",
      "arguments": [
        "0x9A3A5EdDDFEe1E3A1BBef6Fdf0850B10D4979405"
      ],
      "transaction": {
        "type": "0x02",
        "from": "0x9a3a5edddfee1e3a1bbef6fdf0850b10d4979405",
        "to": "0xb464f4582e62f6eb3cf506e4135f92bd198eb03e",
        "gas": "0x1327c",
        "value": "0x0",
        "data": "0x6a6278420000000000000000000000009a3a5edddfee1e3a1bbef6fdf0850b10d4979405",
        "nonce": "0x37",
        "accessList": []
      },
      "additionalContracts": [],
      "isFixedGasLimit": false
    },
    {
      "hash": "0x3306f7391574819f196f99322c1c8369116f3881c48c9c0bcf167c11bb5c0374",
      "transactionType": "CALL",
      "contractName": null,
      "contractAddress": "0xB464F4582e62F6eB3CF506E4135f92BD198EB03E",
      "function": "mint(address)",
      "arguments": [
        "0x9A3A5EdDDFEe1E3A1BBef6Fdf0850B10D4979405"
      ],
      "transaction": {
        "type": "0x02",
        "from": "0x9a3a5edddfee1e3a1bbef6fdf0850b10d4979405",
        "to": "0xb464f4582e62f6eb3cf506e4135f92bd198eb03e",
        "gas": "0x1327c",
        "value": "0x0",
        "data": "0x6a6278420000000000000000000000009a3a5edddfee1e3a1bbef6fdf0850b10d4979405",
        "nonce": "0x38",
        "accessList": []
      },
      "additionalContracts": [],
      "isFixedGasLimit": false
    },
    {
      "hash": "0x79b5e69b7e970a40e663ccda0f4e1fd63256f18f93bd6bd9192deeb2941e8034",
      "transactionType": "CALL",
      "contractName": null,
      "contractAddress": "0xB464F4582e62F6eB3CF506E4135f92BD198EB03E",
      "function": "mint(address)",
      "arguments": [
        "0x9A3A5EdDDFEe1E3A1BBef6Fdf0850B10D4979405"
      ],
      "transaction": {
        "type": "0x02",
        "from": "0x9a3a5edddfee1e3a1bbef6fdf0850b10d4979405",
        "to": "0xb464f4582e62f6eb3cf506e4135f92bd198eb03e",
        "gas": "0x1327c",
        "value": "0x0",
        "data": "0x6a6278420000000000000000000000009a3a5edddfee1e3a1bbef6fdf0850b10d4979405",
        "nonce": "0x39",
        "accessList": []
      },
      "additionalContracts": [],
      "isFixedGasLimit": false
    },
    {
      "hash": "0xe87df7ee957ca7604729fa1975a152f78643e2286d785840ca309315d453db71",
      "transactionType": "CALL",
      "contractName": null,
      "contractAddress": "0xB464F4582e62F6eB3CF506E4135f92BD198EB03E",
      "function": "mint(address)",
      "arguments": [
        "0x9A3A5EdDDFEe1E3A1BBef6Fdf0850B10D4979405"
      ],
      "transaction": {
        "type": "0x02",
        "from": "0x9a3a5edddfee1e3a1bbef6fdf0850b10d4979405",
        "to": "0xb464f4582e62f6eb3cf506e4135f92bd198eb03e",
        "gas": "0x1327c",
        "value": "0x0",
        "data": "0x6a6278420000000000000000000000009a3a5edddfee1e3a1bbef6fdf0850b10d4979405",
        "nonce": "0x3a",
        "accessList": []
      },
      "additionalContracts": [],
      "isFixedGasLimit": false
    },
    {
      "hash": "0xf658e288b317843b06706f0042a19efdd734e549a9f7856715fcc64ba7626856",
      "transactionType": "CALL",
      "contractName": "RegistrationModule",
      "contractAddress": "0x0baA92F82d8992Ff152047f29084079c263BE7F7",
      "function": "registerRootIp(uint256,address,uint256)",
      "arguments": [
        "0",
        "0xB464F4582e62F6eB3CF506E4135f92BD198EB03E",
        "9"
      ],
      "transaction": {
        "type": "0x02",
        "from": "0x9a3a5edddfee1e3a1bbef6fdf0850b10d4979405",
        "to": "0x0baa92f82d8992ff152047f29084079c263be7f7",
        "gas": "0x3e604",
        "value": "0x0",
        "data": "0xa38f3a7b0000000000000000000000000000000000000000000000000000000000000000000000000000000000000000b464f4582e62f6eb3cf506e4135f92bd198eb03e0000000000000000000000000000000000000000000000000000000000000009",
        "nonce": "0x3b",
        "accessList": []
      },
      "additionalContracts": [
        {
          "transactionType": "CREATE2",
          "address": "0x0F710802c59255110874c58d9051e545f6e75D96",
          "initCode": "0x3d60ad80600a3d3981f3363d3d373d3d3d363d7367df68ae71e9ebbd9c6ddfc18b7983540fee6eb95af43d82803e903d91602b57fd5bf300000000000000000000000000000000000000000000000000000000000000000000000000000000000000000000000000000000000000000000000000aa36a7000000000000000000000000b464f4582e62f6eb3cf506e4135f92bd198eb03e0000000000000000000000000000000000000000000000000000000000000009"
        }
      ],
      "isFixedGasLimit": false
    },
    {
      "hash": "0x0ee98ff35326149a0af17b6f62acccb5496786366c6f637da0ff08f269b53fcf",
      "transactionType": "CALL",
      "contractName": "RegistrationModule",
      "contractAddress": "0x0baA92F82d8992Ff152047f29084079c263BE7F7",
      "function": "registerRootIp(uint256,address,uint256)",
      "arguments": [
        "0",
        "0xB464F4582e62F6eB3CF506E4135f92BD198EB03E",
        "10"
      ],
      "transaction": {
        "type": "0x02",
        "from": "0x9a3a5edddfee1e3a1bbef6fdf0850b10d4979405",
        "to": "0x0baa92f82d8992ff152047f29084079c263be7f7",
        "gas": "0x3e604",
        "value": "0x0",
        "data": "0xa38f3a7b0000000000000000000000000000000000000000000000000000000000000000000000000000000000000000b464f4582e62f6eb3cf506e4135f92bd198eb03e000000000000000000000000000000000000000000000000000000000000000a",
        "nonce": "0x3c",
        "accessList": []
      },
      "additionalContracts": [
        {
          "transactionType": "CREATE2",
          "address": "0x60E5B800Cd73B3302FCB89c4031bAab35A4D0A8D",
          "initCode": "0x3d60ad80600a3d3981f3363d3d373d3d3d363d7367df68ae71e9ebbd9c6ddfc18b7983540fee6eb95af43d82803e903d91602b57fd5bf300000000000000000000000000000000000000000000000000000000000000000000000000000000000000000000000000000000000000000000000000aa36a7000000000000000000000000b464f4582e62f6eb3cf506e4135f92bd198eb03e000000000000000000000000000000000000000000000000000000000000000a"
        }
      ],
      "isFixedGasLimit": false
    },
    {
      "hash": "0xf5fe84a95cc3b2299c653164c1caabc742127e4601dafc7519b65a255c6e0f54",
      "transactionType": "CALL",
      "contractName": null,
      "contractAddress": "0xB76441f5802DBfA7244C904871F3747E371C3C78",
      "function": "setGlobalPermission(address,address,bytes4,uint8)",
      "arguments": [
        "0x0baA92F82d8992Ff152047f29084079c263BE7F7",
        "0x32f0471E404096B978248d0ECE3A8998D87a4b67",
        "0x0000000000000000000000000000000000000000000000000000000000000000",
        "1"
      ],
      "transaction": {
        "type": "0x02",
        "from": "0x9a3a5edddfee1e3a1bbef6fdf0850b10d4979405",
        "to": "0xb76441f5802dbfa7244c904871f3747e371c3c78",
        "gas": "0x8fed",
        "value": "0x0",
        "data": "0x9f1ac51d0000000000000000000000000baa92f82d8992ff152047f29084079c263be7f700000000000000000000000032f0471e404096b978248d0ece3a8998d87a4b6700000000000000000000000000000000000000000000000000000000000000000000000000000000000000000000000000000000000000000000000000000001",
        "nonce": "0x3d",
        "accessList": []
      },
      "additionalContracts": [],
      "isFixedGasLimit": false
    },
    {
      "hash": "0x06e5366b40c648bf7453b5f4e6a8a37d7eafb5caa1a1fdb1450872a34d5474c1",
      "transactionType": "CALL",
      "contractName": "IPMetadataProvider",
      "contractAddress": "0x0F710802c59255110874c58d9051e545f6e75D96",
      "function": null,
      "arguments": null,
      "transaction": {
        "type": "0x02",
        "from": "0x9a3a5edddfee1e3a1bbef6fdf0850b10d4979405",
        "to": "0x0f710802c59255110874c58d9051e545f6e75d96",
        "gas": "0x2f4b8",
        "value": "0x0",
        "data": "0xb61d27f6000000000000000000000000b76441f5802dbfa7244c904871f3747e371c3c780000000000000000000000000000000000000000000000000000000000000000000000000000000000000000000000000000000000000000000000000000006000000000000000000000000000000000000000000000000000000000000000a47bac65fd0000000000000000000000000f710802c59255110874c58d9051e545f6e75d960000000000000000000000009a3a5edddfee1e3a1bbef6fdf0850b10d497940500000000000000000000000032f0471e404096b978248d0ece3a8998d87a4b670000000000000000000000000000000000000000000000000000000000000000000000000000000000000000000000000000000000000000000000000000000100000000000000000000000000000000000000000000000000000000",
        "nonce": "0x3e",
        "accessList": []
      },
      "additionalContracts": [],
      "isFixedGasLimit": false
    }
  ],
  "receipts": [
    {
      "transactionHash": "0xdaa1a819ac2ddf259ab5778ed271a66188480a72fa77e3b2d79ee7782ff8fd70",
      "transactionIndex": "0x2",
      "blockHash": "0xcdd3a7549535ec63647b8f16b8dc8086cece0d027834190395a17fd92a26da32",
      "blockNumber": "0x4ec3d7",
      "from": "0x9A3A5EdDDFEe1E3A1BBef6Fdf0850B10D4979405",
      "to": "0xB464F4582e62F6eB3CF506E4135f92BD198EB03E",
      "cumulativeGasUsed": "0x1e755",
      "gasUsed": "0xdde4",
      "contractAddress": null,
      "logs": [
        {
          "address": "0xB464F4582e62F6eB3CF506E4135f92BD198EB03E",
          "topics": [
            "0xddf252ad1be2c89b69c2b068fc378daa952ba7f163c4a11628f55a4df523b3ef",
            "0x0000000000000000000000000000000000000000000000000000000000000000",
            "0x0000000000000000000000009a3a5edddfee1e3a1bbef6fdf0850b10d4979405",
            "0x0000000000000000000000000000000000000000000000000000000000000009"
          ],
          "data": "0x",
          "blockHash": "0xcdd3a7549535ec63647b8f16b8dc8086cece0d027834190395a17fd92a26da32",
          "blockNumber": "0x4ec3d7",
          "transactionHash": "0xdaa1a819ac2ddf259ab5778ed271a66188480a72fa77e3b2d79ee7782ff8fd70",
          "transactionIndex": "0x2",
          "logIndex": "0x1",
          "removed": false
        }
      ],
      "status": "0x1",
      "logsBloom": "0x00000000000000000000000000000000000000000000000000000000000000000000000000000000000000000000000000000000000000000000000000200000000000000000000000000008000000000000000000000000008000000000000000000000020000001000000000000800000000000000000000000010000000000000000000000000000000000000000000001000001000000000000000000000000000000000000000000000000000000000000000200000008000000000000000000002000000000000000000000000000000000000000000000000000020000000000000000000000000000000000000000000000000000000000020800000",
      "type": "0x2",
      "effectiveGasPrice": "0xb7b03007"
    },
    {
      "transactionHash": "0x3306f7391574819f196f99322c1c8369116f3881c48c9c0bcf167c11bb5c0374",
      "transactionIndex": "0x3",
      "blockHash": "0xcdd3a7549535ec63647b8f16b8dc8086cece0d027834190395a17fd92a26da32",
      "blockNumber": "0x4ec3d7",
      "from": "0x9A3A5EdDDFEe1E3A1BBef6Fdf0850B10D4979405",
      "to": "0xB464F4582e62F6eB3CF506E4135f92BD198EB03E",
      "cumulativeGasUsed": "0x2c539",
      "gasUsed": "0xdde4",
      "contractAddress": null,
      "logs": [
        {
          "address": "0xB464F4582e62F6eB3CF506E4135f92BD198EB03E",
          "topics": [
            "0xddf252ad1be2c89b69c2b068fc378daa952ba7f163c4a11628f55a4df523b3ef",
            "0x0000000000000000000000000000000000000000000000000000000000000000",
            "0x0000000000000000000000009a3a5edddfee1e3a1bbef6fdf0850b10d4979405",
            "0x000000000000000000000000000000000000000000000000000000000000000a"
          ],
          "data": "0x",
          "blockHash": "0xcdd3a7549535ec63647b8f16b8dc8086cece0d027834190395a17fd92a26da32",
          "blockNumber": "0x4ec3d7",
          "transactionHash": "0x3306f7391574819f196f99322c1c8369116f3881c48c9c0bcf167c11bb5c0374",
          "transactionIndex": "0x3",
          "logIndex": "0x2",
          "removed": false
        }
      ],
      "status": "0x1",
      "logsBloom": "0x00000000000000000000000000000000000000000000000000000000000000000000000000000000000000000000000000000000040000000020000000000000000000000000000000000008000000000000000000000000008000000000000000000000020000001000000000000800000000000000000000000010000000000000000000000000010000000000000000000000001000000000000000000000000000000000000000000000000000000000000000200000008000000000000000000002000000000000000000000000000000000000000000000000000020000000000000000000000000000000000000000000000000000000000020000000",
      "type": "0x2",
      "effectiveGasPrice": "0xb7b03007"
    },
    {
      "transactionHash": "0x79b5e69b7e970a40e663ccda0f4e1fd63256f18f93bd6bd9192deeb2941e8034",
      "transactionIndex": "0x4",
      "blockHash": "0xcdd3a7549535ec63647b8f16b8dc8086cece0d027834190395a17fd92a26da32",
      "blockNumber": "0x4ec3d7",
      "from": "0x9A3A5EdDDFEe1E3A1BBef6Fdf0850B10D4979405",
      "to": "0xB464F4582e62F6eB3CF506E4135f92BD198EB03E",
      "cumulativeGasUsed": "0x3a31d",
      "gasUsed": "0xdde4",
      "contractAddress": null,
      "logs": [
        {
          "address": "0xB464F4582e62F6eB3CF506E4135f92BD198EB03E",
          "topics": [
            "0xddf252ad1be2c89b69c2b068fc378daa952ba7f163c4a11628f55a4df523b3ef",
            "0x0000000000000000000000000000000000000000000000000000000000000000",
            "0x0000000000000000000000009a3a5edddfee1e3a1bbef6fdf0850b10d4979405",
            "0x000000000000000000000000000000000000000000000000000000000000000b"
          ],
          "data": "0x",
          "blockHash": "0xcdd3a7549535ec63647b8f16b8dc8086cece0d027834190395a17fd92a26da32",
          "blockNumber": "0x4ec3d7",
          "transactionHash": "0x79b5e69b7e970a40e663ccda0f4e1fd63256f18f93bd6bd9192deeb2941e8034",
          "transactionIndex": "0x4",
          "logIndex": "0x3",
          "removed": false
        }
      ],
      "status": "0x1",
      "logsBloom": "0x00000000000000000000004000000000000000000000000000000000000000000000000000000000000000000000000000000000000000000000000000000000000000000000000000000008000000000000000000000000008000000000000000000000020000001000000000000800000000000000000000000010000000000000000000000000000000000000000000000000001000000000000000000000000000000000000000000000000000000000000000200000008000000000000000000002000000000000000000000000002000000000000000000000000020000000000000000000000000000000000000000000000000040000000020000000",
      "type": "0x2",
      "effectiveGasPrice": "0xb7b03007"
    },
    {
      "transactionHash": "0xe87df7ee957ca7604729fa1975a152f78643e2286d785840ca309315d453db71",
      "transactionIndex": "0x5",
      "blockHash": "0xcdd3a7549535ec63647b8f16b8dc8086cece0d027834190395a17fd92a26da32",
      "blockNumber": "0x4ec3d7",
      "from": "0x9A3A5EdDDFEe1E3A1BBef6Fdf0850B10D4979405",
      "to": "0xB464F4582e62F6eB3CF506E4135f92BD198EB03E",
      "cumulativeGasUsed": "0x48101",
      "gasUsed": "0xdde4",
      "contractAddress": null,
      "logs": [
        {
          "address": "0xB464F4582e62F6eB3CF506E4135f92BD198EB03E",
          "topics": [
            "0xddf252ad1be2c89b69c2b068fc378daa952ba7f163c4a11628f55a4df523b3ef",
            "0x0000000000000000000000000000000000000000000000000000000000000000",
            "0x0000000000000000000000009a3a5edddfee1e3a1bbef6fdf0850b10d4979405",
            "0x000000000000000000000000000000000000000000000000000000000000000c"
          ],
          "data": "0x",
          "blockHash": "0xcdd3a7549535ec63647b8f16b8dc8086cece0d027834190395a17fd92a26da32",
          "blockNumber": "0x4ec3d7",
          "transactionHash": "0xe87df7ee957ca7604729fa1975a152f78643e2286d785840ca309315d453db71",
          "transactionIndex": "0x5",
          "logIndex": "0x4",
          "removed": false
        }
      ],
      "status": "0x1",
      "logsBloom": "0x00000000000000000000000000000000000002000000000000000000000000000000000000000200000000000000000000000000000000000000000000000000000000000000000000000008000000000000000000000000008000000000000000000000020000001000000000000800000000000000000000000010000000000000000000000000000000000000000000000000001000000000000000000000000000000000000000000000000000000000000000200000008000000000000000000002000000000000000000000000000000000000000000000000000020200000000000000000000000000000000000000000000000000000000020000000",
      "type": "0x2",
      "effectiveGasPrice": "0xb7b03007"
    },
    {
      "transactionHash": "0xf658e288b317843b06706f0042a19efdd734e549a9f7856715fcc64ba7626856",
      "transactionIndex": "0x6",
      "blockHash": "0xcdd3a7549535ec63647b8f16b8dc8086cece0d027834190395a17fd92a26da32",
      "blockNumber": "0x4ec3d7",
      "from": "0x9A3A5EdDDFEe1E3A1BBef6Fdf0850B10D4979405",
      "to": "0x0baA92F82d8992Ff152047f29084079c263BE7F7",
      "cumulativeGasUsed": "0x7539a",
      "gasUsed": "0x2d299",
      "contractAddress": null,
      "logs": [
        {
          "address": "0x000000006551c19487814612e58FE06813775758",
          "topics": [
            "0x79f19b3655ee38b1ce526556b7731a20c8f218fbda4a3990b6cc4172fdf88722",
            "0x00000000000000000000000067df68ae71e9ebbd9c6ddfc18b7983540fee6eb9",
            "0x000000000000000000000000b464f4582e62f6eb3cf506e4135f92bd198eb03e",
            "0x0000000000000000000000000000000000000000000000000000000000000009"
          ],
          "data": "0x0000000000000000000000000f710802c59255110874c58d9051e545f6e75d9600000000000000000000000000000000000000000000000000000000000000000000000000000000000000000000000000000000000000000000000000aa36a7",
          "blockHash": "0xcdd3a7549535ec63647b8f16b8dc8086cece0d027834190395a17fd92a26da32",
          "blockNumber": "0x4ec3d7",
          "transactionHash": "0xf658e288b317843b06706f0042a19efdd734e549a9f7856715fcc64ba7626856",
          "transactionIndex": "0x6",
          "logIndex": "0x5",
          "removed": false
        },
        {
          "address": "0xA3067eb696e55F885aE229DF16e5fD75a739CCDF",
          "topics": [
            "0x5be70b68c8361762980ec7d425d79fd33f6d49cac8a498e6ddf514f995b987f7",
            "0x0000000000000000000000000f710802c59255110874c58d9051e545f6e75d96",
            "0x00000000000000000000000067df68ae71e9ebbd9c6ddfc18b7983540fee6eb9",
            "0x0000000000000000000000000000000000000000000000000000000000aa36a7"
          ],
          "data": "0x000000000000000000000000b464f4582e62f6eb3cf506e4135f92bd198eb03e0000000000000000000000000000000000000000000000000000000000000009",
          "blockHash": "0xcdd3a7549535ec63647b8f16b8dc8086cece0d027834190395a17fd92a26da32",
          "blockNumber": "0x4ec3d7",
          "transactionHash": "0xf658e288b317843b06706f0042a19efdd734e549a9f7856715fcc64ba7626856",
          "transactionIndex": "0x6",
          "logIndex": "0x6",
          "removed": false
        },
        {
          "address": "0x57AE4356320e65fbab8679cC2FD05C0b9CA608D2",
          "topics": [
            "0xb0f8a29d221d596b0eb4fbccfafbd58102fe1bd92f55e6d5b19cd7393c1d577e",
            "0x0000000000000000000000000000000000000000000000000000000000aa36a7",
            "0x000000000000000000000000b464f4582e62f6eb3cf506e4135f92bd198eb03e",
            "0x0000000000000000000000000000000000000000000000000000000000000009"
          ],
          "data": "0x0000000000000000000000000f710802c59255110874c58d9051e545f6e75d96",
          "blockHash": "0xcdd3a7549535ec63647b8f16b8dc8086cece0d027834190395a17fd92a26da32",
          "blockNumber": "0x4ec3d7",
          "transactionHash": "0xf658e288b317843b06706f0042a19efdd734e549a9f7856715fcc64ba7626856",
          "transactionIndex": "0x6",
          "logIndex": "0x7",
          "removed": false
        },
        {
          "address": "0x57AE4356320e65fbab8679cC2FD05C0b9CA608D2",
          "topics": [
            "0x45d82cad942fa2e4cfe12a8e0c0b8ecb938b1c95496042dc75f0ecf94cc794f2"
          ],
          "data": "0x0000000000000000000000000f710802c59255110874c58d9051e545f6e75d960000000000000000000000006c88f438cbfd9866dcd067ffe18b951f19b968da",
          "blockHash": "0xcdd3a7549535ec63647b8f16b8dc8086cece0d027834190395a17fd92a26da32",
          "blockNumber": "0x4ec3d7",
          "transactionHash": "0xf658e288b317843b06706f0042a19efdd734e549a9f7856715fcc64ba7626856",
          "transactionIndex": "0x6",
          "logIndex": "0x8",
          "removed": false
        },
        {
          "address": "0x57AE4356320e65fbab8679cC2FD05C0b9CA608D2",
          "topics": [
            "0xe8b4e5e3b3081bb5e138b90953bc4b8d4bd4a144a957791f2c1164211f3fffdc",
            "0x0000000000000000000000000000000000000000000000000000000000aa36a7",
            "0x000000000000000000000000b464f4582e62f6eb3cf506e4135f92bd198eb03e",
            "0x0000000000000000000000000000000000000000000000000000000000000009"
          ],
          "data": "0x0000000000000000000000000f710802c59255110874c58d9051e545f6e75d960000000000000000000000006c88f438cbfd9866dcd067ffe18b951f19b968da",
          "blockHash": "0xcdd3a7549535ec63647b8f16b8dc8086cece0d027834190395a17fd92a26da32",
          "blockNumber": "0x4ec3d7",
          "transactionHash": "0xf658e288b317843b06706f0042a19efdd734e549a9f7856715fcc64ba7626856",
          "transactionIndex": "0x6",
          "logIndex": "0x9",
          "removed": false
        },
        {
          "address": "0x0baA92F82d8992Ff152047f29084079c263BE7F7",
          "topics": [
            "0xa6e4d1983948888a2be7e084c14834fc01066c7b1173b1d505a1a882ae310a3e",
            "0x0000000000000000000000009a3a5edddfee1e3a1bbef6fdf0850b10d4979405",
            "0x0000000000000000000000000f710802c59255110874c58d9051e545f6e75d96",
            "0x0000000000000000000000000000000000000000000000000000000000000000"
          ],
          "data": "0x",
          "blockHash": "0xcdd3a7549535ec63647b8f16b8dc8086cece0d027834190395a17fd92a26da32",
          "blockNumber": "0x4ec3d7",
          "transactionHash": "0xf658e288b317843b06706f0042a19efdd734e549a9f7856715fcc64ba7626856",
          "transactionIndex": "0x6",
          "logIndex": "0xa",
          "removed": false
        }
      ],
      "status": "0x1",
      "logsBloom": "0x44010000000000200000000400000004000080000000000000000004000800000000000000800000000000000000080402000000000000000040000000201008200000008000000000000000000000000000000000000000008080000000000000000000020000001000000000000800002000000200000000000002000000004000000000802000000000000000000000001000000000000000000000000000000000100000000000000000102000400800000000200000000000000200000000000000000100000010200000000000100000000000000000000001000020000000000000000000001004000000080000000000000000000000000000801100",
      "type": "0x2",
      "effectiveGasPrice": "0xb7b03007"
    },
    {
      "transactionHash": "0x0ee98ff35326149a0af17b6f62acccb5496786366c6f637da0ff08f269b53fcf",
      "transactionIndex": "0x7",
      "blockHash": "0xcdd3a7549535ec63647b8f16b8dc8086cece0d027834190395a17fd92a26da32",
      "blockNumber": "0x4ec3d7",
      "from": "0x9A3A5EdDDFEe1E3A1BBef6Fdf0850B10D4979405",
      "to": "0x0baA92F82d8992Ff152047f29084079c263BE7F7",
      "cumulativeGasUsed": "0xa2633",
      "gasUsed": "0x2d299",
      "contractAddress": null,
      "logs": [
        {
          "address": "0x000000006551c19487814612e58FE06813775758",
          "topics": [
            "0x79f19b3655ee38b1ce526556b7731a20c8f218fbda4a3990b6cc4172fdf88722",
            "0x00000000000000000000000067df68ae71e9ebbd9c6ddfc18b7983540fee6eb9",
            "0x000000000000000000000000b464f4582e62f6eb3cf506e4135f92bd198eb03e",
            "0x000000000000000000000000000000000000000000000000000000000000000a"
          ],
          "data": "0x00000000000000000000000060e5b800cd73b3302fcb89c4031baab35a4d0a8d00000000000000000000000000000000000000000000000000000000000000000000000000000000000000000000000000000000000000000000000000aa36a7",
          "blockHash": "0xcdd3a7549535ec63647b8f16b8dc8086cece0d027834190395a17fd92a26da32",
          "blockNumber": "0x4ec3d7",
          "transactionHash": "0x0ee98ff35326149a0af17b6f62acccb5496786366c6f637da0ff08f269b53fcf",
          "transactionIndex": "0x7",
          "logIndex": "0xb",
          "removed": false
        },
        {
          "address": "0xA3067eb696e55F885aE229DF16e5fD75a739CCDF",
          "topics": [
            "0x5be70b68c8361762980ec7d425d79fd33f6d49cac8a498e6ddf514f995b987f7",
            "0x00000000000000000000000060e5b800cd73b3302fcb89c4031baab35a4d0a8d",
            "0x00000000000000000000000067df68ae71e9ebbd9c6ddfc18b7983540fee6eb9",
            "0x0000000000000000000000000000000000000000000000000000000000aa36a7"
          ],
          "data": "0x000000000000000000000000b464f4582e62f6eb3cf506e4135f92bd198eb03e000000000000000000000000000000000000000000000000000000000000000a",
          "blockHash": "0xcdd3a7549535ec63647b8f16b8dc8086cece0d027834190395a17fd92a26da32",
          "blockNumber": "0x4ec3d7",
          "transactionHash": "0x0ee98ff35326149a0af17b6f62acccb5496786366c6f637da0ff08f269b53fcf",
          "transactionIndex": "0x7",
          "logIndex": "0xc",
          "removed": false
        },
        {
          "address": "0x57AE4356320e65fbab8679cC2FD05C0b9CA608D2",
          "topics": [
            "0xb0f8a29d221d596b0eb4fbccfafbd58102fe1bd92f55e6d5b19cd7393c1d577e",
            "0x0000000000000000000000000000000000000000000000000000000000aa36a7",
            "0x000000000000000000000000b464f4582e62f6eb3cf506e4135f92bd198eb03e",
            "0x000000000000000000000000000000000000000000000000000000000000000a"
          ],
          "data": "0x00000000000000000000000060e5b800cd73b3302fcb89c4031baab35a4d0a8d",
          "blockHash": "0xcdd3a7549535ec63647b8f16b8dc8086cece0d027834190395a17fd92a26da32",
          "blockNumber": "0x4ec3d7",
          "transactionHash": "0x0ee98ff35326149a0af17b6f62acccb5496786366c6f637da0ff08f269b53fcf",
          "transactionIndex": "0x7",
          "logIndex": "0xd",
          "removed": false
        },
        {
          "address": "0x57AE4356320e65fbab8679cC2FD05C0b9CA608D2",
          "topics": [
            "0x45d82cad942fa2e4cfe12a8e0c0b8ecb938b1c95496042dc75f0ecf94cc794f2"
          ],
          "data": "0x00000000000000000000000060e5b800cd73b3302fcb89c4031baab35a4d0a8d0000000000000000000000006c88f438cbfd9866dcd067ffe18b951f19b968da",
          "blockHash": "0xcdd3a7549535ec63647b8f16b8dc8086cece0d027834190395a17fd92a26da32",
          "blockNumber": "0x4ec3d7",
          "transactionHash": "0x0ee98ff35326149a0af17b6f62acccb5496786366c6f637da0ff08f269b53fcf",
          "transactionIndex": "0x7",
          "logIndex": "0xe",
          "removed": false
        },
        {
          "address": "0x57AE4356320e65fbab8679cC2FD05C0b9CA608D2",
          "topics": [
            "0xe8b4e5e3b3081bb5e138b90953bc4b8d4bd4a144a957791f2c1164211f3fffdc",
            "0x0000000000000000000000000000000000000000000000000000000000aa36a7",
            "0x000000000000000000000000b464f4582e62f6eb3cf506e4135f92bd198eb03e",
            "0x000000000000000000000000000000000000000000000000000000000000000a"
          ],
          "data": "0x00000000000000000000000060e5b800cd73b3302fcb89c4031baab35a4d0a8d0000000000000000000000006c88f438cbfd9866dcd067ffe18b951f19b968da",
          "blockHash": "0xcdd3a7549535ec63647b8f16b8dc8086cece0d027834190395a17fd92a26da32",
          "blockNumber": "0x4ec3d7",
          "transactionHash": "0x0ee98ff35326149a0af17b6f62acccb5496786366c6f637da0ff08f269b53fcf",
          "transactionIndex": "0x7",
          "logIndex": "0xf",
          "removed": false
        },
        {
          "address": "0x0baA92F82d8992Ff152047f29084079c263BE7F7",
          "topics": [
            "0xa6e4d1983948888a2be7e084c14834fc01066c7b1173b1d505a1a882ae310a3e",
            "0x0000000000000000000000009a3a5edddfee1e3a1bbef6fdf0850b10d4979405",
            "0x00000000000000000000000060e5b800cd73b3302fcb89c4031baab35a4d0a8d",
            "0x0000000000000000000000000000000000000000000000000000000000000000"
          ],
          "data": "0x",
          "blockHash": "0xcdd3a7549535ec63647b8f16b8dc8086cece0d027834190395a17fd92a26da32",
          "blockNumber": "0x4ec3d7",
          "transactionHash": "0x0ee98ff35326149a0af17b6f62acccb5496786366c6f637da0ff08f269b53fcf",
          "transactionIndex": "0x7",
          "logIndex": "0x10",
          "removed": false
        }
      ],
      "status": "0x1",
      "logsBloom": "0x44010000000000200000000400000004000080000000000080000004000800000000000002800000000000000000080002000000040000000060000000000008200000008000000000000000000000000000000000000000008080000000000000000000020000001000000000000800002000000000000004000002000000004000000000802000010000000000000000000000000000000000000000000000000000100000000000000000102000400800000000200000000000000200000000000000000100000010200000000000100000000000000000000001000020000000000000000000001004000000080000000000000000000000000000001100",
      "type": "0x2",
      "effectiveGasPrice": "0xb7b03007"
    },
    {
      "transactionHash": "0xf5fe84a95cc3b2299c653164c1caabc742127e4601dafc7519b65a255c6e0f54",
      "transactionIndex": "0x8",
      "blockHash": "0xcdd3a7549535ec63647b8f16b8dc8086cece0d027834190395a17fd92a26da32",
      "blockNumber": "0x4ec3d7",
      "from": "0x9A3A5EdDDFEe1E3A1BBef6Fdf0850B10D4979405",
      "to": "0xB76441f5802DBfA7244C904871F3747E371C3C78",
      "cumulativeGasUsed": "0xa889d",
      "gasUsed": "0x626a",
      "contractAddress": null,
      "logs": [],
      "status": "0x1",
      "logsBloom": "0x00000000000000000000000000000000000000000000000000000000000000000000000000000000000000000000000000000000000000000000000000000000000000000000000000000000000000000000000000000000000000000000000000000000000000000000000000000000000000000000000000000000000000000000000000000000000000000000000000000000000000000000000000000000000000000000000000000000000000000000000000000000000000000000000000000000000000000000000000000000000000000000000000000000000000000000000000000000000000000000000000000000000000000000000000000000",
      "type": "0x2",
      "effectiveGasPrice": "0xb7b03007"
    },
    {
      "transactionHash": "0x06e5366b40c648bf7453b5f4e6a8a37d7eafb5caa1a1fdb1450872a34d5474c1",
      "transactionIndex": "0x9",
      "blockHash": "0xcdd3a7549535ec63647b8f16b8dc8086cece0d027834190395a17fd92a26da32",
      "blockNumber": "0x4ec3d7",
      "from": "0x9A3A5EdDDFEe1E3A1BBef6Fdf0850B10D4979405",
      "to": "0x0F710802c59255110874c58d9051e545f6e75D96",
      "cumulativeGasUsed": "0xc8e08",
      "gasUsed": "0x2056b",
      "contractAddress": null,
      "logs": [
        {
          "address": "0xB76441f5802DBfA7244C904871F3747E371C3C78",
          "topics": [
            "0x8f0fb229f51592112b01916daccbee10c2a8dc2c1c81d2138c12060fbcfac88a",
            "0x0000000000000000000000000f710802c59255110874c58d9051e545f6e75d96",
            "0x0000000000000000000000009a3a5edddfee1e3a1bbef6fdf0850b10d4979405",
            "0x00000000000000000000000032f0471e404096b978248d0ece3a8998d87a4b67"
          ],
          "data": "0x00000000000000000000000000000000000000000000000000000000000000000000000000000000000000000000000000000000000000000000000000000001",
          "blockHash": "0xcdd3a7549535ec63647b8f16b8dc8086cece0d027834190395a17fd92a26da32",
          "blockNumber": "0x4ec3d7",
          "transactionHash": "0x06e5366b40c648bf7453b5f4e6a8a37d7eafb5caa1a1fdb1450872a34d5474c1",
          "transactionIndex": "0x9",
          "logIndex": "0x11",
          "removed": false
        }
      ],
      "status": "0x1",
      "logsBloom": "0x00000000000000000000000000000000000000000000000000000000000000000010000000000000000000000000000400000000000000000000000000001000000000000000000000000000000000000000000000000000408000000000000000000000000000001000000000080000000000000200000000000000000000000000000000000000000000000000000008100000000000000000000000000000000000000000000000000008000000000000000000200000000000000000000000000000000000000108000000000000000000000000000000000000000000000000000000000000000800000000000000000000000000000000000000000000",
      "type": "0x2",
      "effectiveGasPrice": "0xb7b03007"
    }
  ],
  "libraries": [],
  "pending": [],
  "returns": {},
  "timestamp": 1706331789,
  "chain": 11155111,
  "multi": false,
  "commit": "8836092"
}