{
  "transactions": [
    {
      "hash": "0x2c5119852fd943fc0202d1d9cac0f5ed7a51845d58778a123a30a6185d13408a",
      "transactionType": "CALL",
      "contractName": null,
      "contractAddress": "0xB464F4582e62F6eB3CF506E4135f92BD198EB03E",
      "function": "mint(address)",
      "arguments": [
        "0x9A3A5EdDDFEe1E3A1BBef6Fdf0850B10D4979405"
      ],
      "transaction": {
        "type": "0x02",
        "from": "0x9a3a5edddfee1e3a1bbef6fdf0850b10d4979405",
        "to": "0xb464f4582e62f6eb3cf506e4135f92bd198eb03e",
        "gas": "0x18ebf",
        "value": "0x0",
        "data": "0x6a6278420000000000000000000000009a3a5edddfee1e3a1bbef6fdf0850b10d4979405",
        "nonce": "0x2b",
        "accessList": []
      },
      "additionalContracts": [],
      "isFixedGasLimit": false
    },
    {
      "hash": "0xa02430f41f04e4c2ef53bd02ff2b30347a8dff8fe8aedf4684c364f3b500552d",
      "transactionType": "CALL",
      "contractName": null,
      "contractAddress": "0xB464F4582e62F6eB3CF506E4135f92BD198EB03E",
      "function": "mint(address)",
      "arguments": [
        "0x9A3A5EdDDFEe1E3A1BBef6Fdf0850B10D4979405"
      ],
      "transaction": {
        "type": "0x02",
        "from": "0x9a3a5edddfee1e3a1bbef6fdf0850b10d4979405",
        "to": "0xb464f4582e62f6eb3cf506e4135f92bd198eb03e",
        "gas": "0x1327c",
        "value": "0x0",
        "data": "0x6a6278420000000000000000000000009a3a5edddfee1e3a1bbef6fdf0850b10d4979405",
        "nonce": "0x2c",
        "accessList": []
      },
      "additionalContracts": [],
      "isFixedGasLimit": false
    },
    {
      "hash": "0x59f53d91cc5dc5a4ff2155f8e00cad19b466898a6079a26cc46d974fc5a7c14a",
      "transactionType": "CALL",
      "contractName": null,
      "contractAddress": "0xB464F4582e62F6eB3CF506E4135f92BD198EB03E",
      "function": "mint(address)",
      "arguments": [
        "0x9A3A5EdDDFEe1E3A1BBef6Fdf0850B10D4979405"
      ],
      "transaction": {
        "type": "0x02",
        "from": "0x9a3a5edddfee1e3a1bbef6fdf0850b10d4979405",
        "to": "0xb464f4582e62f6eb3cf506e4135f92bd198eb03e",
        "gas": "0x1327c",
        "value": "0x0",
        "data": "0x6a6278420000000000000000000000009a3a5edddfee1e3a1bbef6fdf0850b10d4979405",
        "nonce": "0x2d",
        "accessList": []
      },
      "additionalContracts": [],
      "isFixedGasLimit": false
    },
    {
      "hash": "0xb936c49a53f7ff78836fbdc2d4d8cb0d056683bfaa4eba4d475a5422208d7d19",
      "transactionType": "CALL",
      "contractName": null,
      "contractAddress": "0xB464F4582e62F6eB3CF506E4135f92BD198EB03E",
      "function": "mint(address)",
      "arguments": [
        "0x9A3A5EdDDFEe1E3A1BBef6Fdf0850B10D4979405"
      ],
      "transaction": {
        "type": "0x02",
        "from": "0x9a3a5edddfee1e3a1bbef6fdf0850b10d4979405",
        "to": "0xb464f4582e62f6eb3cf506e4135f92bd198eb03e",
        "gas": "0x1327c",
        "value": "0x0",
        "data": "0x6a6278420000000000000000000000009a3a5edddfee1e3a1bbef6fdf0850b10d4979405",
        "nonce": "0x2e",
        "accessList": []
      },
      "additionalContracts": [],
      "isFixedGasLimit": false
    },
    {
      "hash": "0x7ba4ec97b895f7f1d4c6d6c34aaf65c904042f22de2833099ed0da5655f1d71d",
      "transactionType": "CALL",
      "contractName": "RegistrationModule",
      "contractAddress": "0x0baA92F82d8992Ff152047f29084079c263BE7F7",
      "function": "registerRootIp(uint256,address,uint256)",
      "arguments": [
        "0",
        "0xB464F4582e62F6eB3CF506E4135f92BD198EB03E",
        "5"
      ],
      "transaction": {
        "type": "0x02",
        "from": "0x9a3a5edddfee1e3a1bbef6fdf0850b10d4979405",
        "to": "0x0baa92f82d8992ff152047f29084079c263be7f7",
        "gas": "0x3e604",
        "value": "0x0",
        "data": "0xa38f3a7b0000000000000000000000000000000000000000000000000000000000000000000000000000000000000000b464f4582e62f6eb3cf506e4135f92bd198eb03e0000000000000000000000000000000000000000000000000000000000000005",
        "nonce": "0x2f",
        "accessList": []
      },
      "additionalContracts": [
        {
          "transactionType": "CREATE2",
          "address": "0x9cFd63Ac3D8457B9462bE4d5A4FCDCf0163ca405",
          "initCode": "0x3d60ad80600a3d3981f3363d3d373d3d3d363d7367df68ae71e9ebbd9c6ddfc18b7983540fee6eb95af43d82803e903d91602b57fd5bf300000000000000000000000000000000000000000000000000000000000000000000000000000000000000000000000000000000000000000000000000aa36a7000000000000000000000000b464f4582e62f6eb3cf506e4135f92bd198eb03e0000000000000000000000000000000000000000000000000000000000000005"
        }
      ],
      "isFixedGasLimit": false
    },
    {
      "hash": "0x755a328a0f44e3f7e5fadc1f173f61000f5a547d78ab04b9d74b9e35e416c9dc",
      "transactionType": "CALL",
      "contractName": "RegistrationModule",
      "contractAddress": "0x0baA92F82d8992Ff152047f29084079c263BE7F7",
      "function": "registerRootIp(uint256,address,uint256)",
      "arguments": [
        "0",
        "0xB464F4582e62F6eB3CF506E4135f92BD198EB03E",
        "6"
      ],
      "transaction": {
        "type": "0x02",
        "from": "0x9a3a5edddfee1e3a1bbef6fdf0850b10d4979405",
        "to": "0x0baa92f82d8992ff152047f29084079c263be7f7",
        "gas": "0x3e604",
        "value": "0x0",
        "data": "0xa38f3a7b0000000000000000000000000000000000000000000000000000000000000000000000000000000000000000b464f4582e62f6eb3cf506e4135f92bd198eb03e0000000000000000000000000000000000000000000000000000000000000006",
        "nonce": "0x30",
        "accessList": []
      },
      "additionalContracts": [
        {
          "transactionType": "CREATE2",
          "address": "0xcd8125B756296134751d93d7F2C96dA5dFdcae28",
          "initCode": "0x3d60ad80600a3d3981f3363d3d373d3d3d363d7367df68ae71e9ebbd9c6ddfc18b7983540fee6eb95af43d82803e903d91602b57fd5bf300000000000000000000000000000000000000000000000000000000000000000000000000000000000000000000000000000000000000000000000000aa36a7000000000000000000000000b464f4582e62f6eb3cf506e4135f92bd198eb03e0000000000000000000000000000000000000000000000000000000000000006"
        }
      ],
      "isFixedGasLimit": false
    },
    {
      "hash": "0x31df2bd532ccbf443d206d02c6358e3f7628e6de3aec31af04d45f33de107078",
      "transactionType": "CALL",
      "contractName": null,
      "contractAddress": "0xB76441f5802DBfA7244C904871F3747E371C3C78",
      "function": "setGlobalPermission(address,address,bytes4,uint8)",
      "arguments": [
        "0x0baA92F82d8992Ff152047f29084079c263BE7F7",
        "0x32f0471E404096B978248d0ECE3A8998D87a4b67",
        "0x0000000000000000000000000000000000000000000000000000000000000000",
        "1"
      ],
      "transaction": {
        "type": "0x02",
        "from": "0x9a3a5edddfee1e3a1bbef6fdf0850b10d4979405",
        "to": "0xb76441f5802dbfa7244c904871f3747e371c3c78",
        "gas": "0x8fed",
        "value": "0x0",
        "data": "0x9f1ac51d0000000000000000000000000baa92f82d8992ff152047f29084079c263be7f700000000000000000000000032f0471e404096b978248d0ece3a8998d87a4b6700000000000000000000000000000000000000000000000000000000000000000000000000000000000000000000000000000000000000000000000000000001",
        "nonce": "0x31",
        "accessList": []
      },
      "additionalContracts": [],
      "isFixedGasLimit": false
    },
    {
      "hash": "0x92e77053565703786320864fb3236bf60cfa301c356465e5d76b0d295454be3c",
      "transactionType": "CALL",
      "contractName": "IPMetadataProvider",
      "contractAddress": "0x9cFd63Ac3D8457B9462bE4d5A4FCDCf0163ca405",
      "function": null,
      "arguments": null,
      "transaction": {
        "type": "0x02",
        "from": "0x9a3a5edddfee1e3a1bbef6fdf0850b10d4979405",
        "to": "0x9cfd63ac3d8457b9462be4d5a4fcdcf0163ca405",
        "gas": "0x2f4b8",
        "value": "0x0",
        "data": "0xb61d27f6000000000000000000000000b76441f5802dbfa7244c904871f3747e371c3c780000000000000000000000000000000000000000000000000000000000000000000000000000000000000000000000000000000000000000000000000000006000000000000000000000000000000000000000000000000000000000000000a47bac65fd0000000000000000000000009cfd63ac3d8457b9462be4d5a4fcdcf0163ca4050000000000000000000000009a3a5edddfee1e3a1bbef6fdf0850b10d497940500000000000000000000000032f0471e404096b978248d0ece3a8998d87a4b670000000000000000000000000000000000000000000000000000000000000000000000000000000000000000000000000000000000000000000000000000000100000000000000000000000000000000000000000000000000000000",
        "nonce": "0x32",
        "accessList": []
      },
      "additionalContracts": [],
      "isFixedGasLimit": false
    }
  ],
  "receipts": [
    {
      "transactionHash": "0x2c5119852fd943fc0202d1d9cac0f5ed7a51845d58778a123a30a6185d13408a",
      "transactionIndex": "0x8",
      "blockHash": "0xc7143934f170bbe9f94d5972a2053c908bef43bf30ef3a28ff98026b143ff230",
      "blockNumber": "0x4ec1ce",
      "from": "0x9A3A5EdDDFEe1E3A1BBef6Fdf0850B10D4979405",
      "to": "0xB464F4582e62F6eB3CF506E4135f92BD198EB03E",
      "cumulativeGasUsed": "0x1b86b7",
      "gasUsed": "0x120b0",
      "contractAddress": null,
      "logs": [
        {
          "address": "0xB464F4582e62F6eB3CF506E4135f92BD198EB03E",
          "topics": [
            "0xddf252ad1be2c89b69c2b068fc378daa952ba7f163c4a11628f55a4df523b3ef",
            "0x0000000000000000000000000000000000000000000000000000000000000000",
            "0x0000000000000000000000009a3a5edddfee1e3a1bbef6fdf0850b10d4979405",
            "0x0000000000000000000000000000000000000000000000000000000000000005"
          ],
          "data": "0x",
          "blockHash": "0xc7143934f170bbe9f94d5972a2053c908bef43bf30ef3a28ff98026b143ff230",
          "blockNumber": "0x4ec1ce",
          "transactionHash": "0x2c5119852fd943fc0202d1d9cac0f5ed7a51845d58778a123a30a6185d13408a",
          "transactionIndex": "0x8",
          "logIndex": "0x29",
          "removed": false
        }
      ],
      "status": "0x1",
      "logsBloom": "0x00000000000000000000000000000000000000000000000000000000000000000000000000000000000000000000000000000000000000000000000000000000000010000000000000000008000000000000000000000000008000000000000000000000020000001000000000000800000000000000000000000010000000000000000000000000000000000000001000000800001000000000000000000000000000000000000000000000000000000000000000200000008000000000000000000002000000000000000000000000000000000000000000000000000020000000000000000000000000000000000000000000000000000000000020000000",
      "type": "0x2",
      "effectiveGasPrice": "0xba5ef1d1"
    },
    {
      "transactionHash": "0xa02430f41f04e4c2ef53bd02ff2b30347a8dff8fe8aedf4684c364f3b500552d",
      "transactionIndex": "0x9",
      "blockHash": "0xc7143934f170bbe9f94d5972a2053c908bef43bf30ef3a28ff98026b143ff230",
      "blockNumber": "0x4ec1ce",
      "from": "0x9A3A5EdDDFEe1E3A1BBef6Fdf0850B10D4979405",
      "to": "0xB464F4582e62F6eB3CF506E4135f92BD198EB03E",
      "cumulativeGasUsed": "0x1c649b",
      "gasUsed": "0xdde4",
      "contractAddress": null,
      "logs": [
        {
          "address": "0xB464F4582e62F6eB3CF506E4135f92BD198EB03E",
          "topics": [
            "0xddf252ad1be2c89b69c2b068fc378daa952ba7f163c4a11628f55a4df523b3ef",
            "0x0000000000000000000000000000000000000000000000000000000000000000",
            "0x0000000000000000000000009a3a5edddfee1e3a1bbef6fdf0850b10d4979405",
            "0x0000000000000000000000000000000000000000000000000000000000000006"
          ],
          "data": "0x",
          "blockHash": "0xc7143934f170bbe9f94d5972a2053c908bef43bf30ef3a28ff98026b143ff230",
          "blockNumber": "0x4ec1ce",
          "transactionHash": "0xa02430f41f04e4c2ef53bd02ff2b30347a8dff8fe8aedf4684c364f3b500552d",
          "transactionIndex": "0x9",
          "logIndex": "0x2a",
          "removed": false
        }
      ],
      "status": "0x1",
      "logsBloom": "0x00000000000000000000000000000000000000000000000000000000000000000000000000000000000000000000000000000000000400000000000000000000000000000000000000000008000000000000000000000000008000000000000000000000020000001000000000000800000000000000000000000010000000000000000400000000000000000000000000000000001000000000000000000000000000000000000000000000000000000000000000200000008000080000000000000002000000000000000000000000000000000000000000000000000020000000000000000000000000000000000000000000000000000000000020000000",
      "type": "0x2",
      "effectiveGasPrice": "0xba5ef1d1"
    },
    {
      "transactionHash": "0x59f53d91cc5dc5a4ff2155f8e00cad19b466898a6079a26cc46d974fc5a7c14a",
      "transactionIndex": "0xa",
      "blockHash": "0xc7143934f170bbe9f94d5972a2053c908bef43bf30ef3a28ff98026b143ff230",
      "blockNumber": "0x4ec1ce",
      "from": "0x9A3A5EdDDFEe1E3A1BBef6Fdf0850B10D4979405",
      "to": "0xB464F4582e62F6eB3CF506E4135f92BD198EB03E",
      "cumulativeGasUsed": "0x1d427f",
      "gasUsed": "0xdde4",
      "contractAddress": null,
      "logs": [
        {
          "address": "0xB464F4582e62F6eB3CF506E4135f92BD198EB03E",
          "topics": [
            "0xddf252ad1be2c89b69c2b068fc378daa952ba7f163c4a11628f55a4df523b3ef",
            "0x0000000000000000000000000000000000000000000000000000000000000000",
            "0x0000000000000000000000009a3a5edddfee1e3a1bbef6fdf0850b10d4979405",
            "0x0000000000000000000000000000000000000000000000000000000000000007"
          ],
          "data": "0x",
          "blockHash": "0xc7143934f170bbe9f94d5972a2053c908bef43bf30ef3a28ff98026b143ff230",
          "blockNumber": "0x4ec1ce",
          "transactionHash": "0x59f53d91cc5dc5a4ff2155f8e00cad19b466898a6079a26cc46d974fc5a7c14a",
          "transactionIndex": "0xa",
          "logIndex": "0x2b",
          "removed": false
        }
      ],
      "status": "0x1",
      "logsBloom": "0x00000000000000000000000000000000000000000000000000000000000000000000000000000000000000000000000000001000000000000000000000000000000020000000000000000008000000000000000000000000008000000000000000000000020000001000000000000800000000000000000000000010000000000000000000000000000000000000000000000000001000000000000000000000000000000000000000000000000000000000000000200000008000000000000000000002000000000000000000000000000000000000000000000100000020000000000000000000000000000000000000000000000000000000000020000000",
      "type": "0x2",
      "effectiveGasPrice": "0xba5ef1d1"
    },
    {
      "transactionHash": "0xb936c49a53f7ff78836fbdc2d4d8cb0d056683bfaa4eba4d475a5422208d7d19",
      "transactionIndex": "0xb",
      "blockHash": "0xc7143934f170bbe9f94d5972a2053c908bef43bf30ef3a28ff98026b143ff230",
      "blockNumber": "0x4ec1ce",
      "from": "0x9A3A5EdDDFEe1E3A1BBef6Fdf0850B10D4979405",
      "to": "0xB464F4582e62F6eB3CF506E4135f92BD198EB03E",
      "cumulativeGasUsed": "0x1e2063",
      "gasUsed": "0xdde4",
      "contractAddress": null,
      "logs": [
        {
          "address": "0xB464F4582e62F6eB3CF506E4135f92BD198EB03E",
          "topics": [
            "0xddf252ad1be2c89b69c2b068fc378daa952ba7f163c4a11628f55a4df523b3ef",
            "0x0000000000000000000000000000000000000000000000000000000000000000",
            "0x0000000000000000000000009a3a5edddfee1e3a1bbef6fdf0850b10d4979405",
            "0x0000000000000000000000000000000000000000000000000000000000000008"
          ],
          "data": "0x",
          "blockHash": "0xc7143934f170bbe9f94d5972a2053c908bef43bf30ef3a28ff98026b143ff230",
          "blockNumber": "0x4ec1ce",
          "transactionHash": "0xb936c49a53f7ff78836fbdc2d4d8cb0d056683bfaa4eba4d475a5422208d7d19",
          "transactionIndex": "0xb",
          "logIndex": "0x2c",
          "removed": false
        }
      ],
      "status": "0x1",
      "logsBloom": "0x00000000000000000000000000000000000000000000000000000000000000000000000000000000000000000000000000000000000080000000000000000000000000000000000000000008000000000000000000000000008000000000000000000000020000001000000000000800000000000000000000000010000000000080000000000000000000000000000000000000001000000000000000000000000000000000000000000000000000000000000000200000008000000000000040000002000000000000000000000000000000000000000000000000000020000000000000000000000000000000000000000000000000000000000020000000",
      "type": "0x2",
      "effectiveGasPrice": "0xba5ef1d1"
    },
    {
      "transactionHash": "0x7ba4ec97b895f7f1d4c6d6c34aaf65c904042f22de2833099ed0da5655f1d71d",
      "transactionIndex": "0xc",
      "blockHash": "0xc7143934f170bbe9f94d5972a2053c908bef43bf30ef3a28ff98026b143ff230",
      "blockNumber": "0x4ec1ce",
      "from": "0x9A3A5EdDDFEe1E3A1BBef6Fdf0850B10D4979405",
      "to": "0x0baA92F82d8992Ff152047f29084079c263BE7F7",
      "cumulativeGasUsed": "0x20f2fc",
      "gasUsed": "0x2d299",
      "contractAddress": null,
      "logs": [
        {
          "address": "0x000000006551c19487814612e58FE06813775758",
          "topics": [
            "0x79f19b3655ee38b1ce526556b7731a20c8f218fbda4a3990b6cc4172fdf88722",
            "0x00000000000000000000000067df68ae71e9ebbd9c6ddfc18b7983540fee6eb9",
            "0x000000000000000000000000b464f4582e62f6eb3cf506e4135f92bd198eb03e",
            "0x0000000000000000000000000000000000000000000000000000000000000005"
          ],
          "data": "0x0000000000000000000000009cfd63ac3d8457b9462be4d5a4fcdcf0163ca40500000000000000000000000000000000000000000000000000000000000000000000000000000000000000000000000000000000000000000000000000aa36a7",
          "blockHash": "0xc7143934f170bbe9f94d5972a2053c908bef43bf30ef3a28ff98026b143ff230",
          "blockNumber": "0x4ec1ce",
          "transactionHash": "0x7ba4ec97b895f7f1d4c6d6c34aaf65c904042f22de2833099ed0da5655f1d71d",
          "transactionIndex": "0xc",
          "logIndex": "0x2d",
          "removed": false
        },
        {
          "address": "0xA3067eb696e55F885aE229DF16e5fD75a739CCDF",
          "topics": [
            "0x5be70b68c8361762980ec7d425d79fd33f6d49cac8a498e6ddf514f995b987f7",
            "0x0000000000000000000000009cfd63ac3d8457b9462be4d5a4fcdcf0163ca405",
            "0x00000000000000000000000067df68ae71e9ebbd9c6ddfc18b7983540fee6eb9",
            "0x0000000000000000000000000000000000000000000000000000000000aa36a7"
          ],
          "data": "0x000000000000000000000000b464f4582e62f6eb3cf506e4135f92bd198eb03e0000000000000000000000000000000000000000000000000000000000000005",
          "blockHash": "0xc7143934f170bbe9f94d5972a2053c908bef43bf30ef3a28ff98026b143ff230",
          "blockNumber": "0x4ec1ce",
          "transactionHash": "0x7ba4ec97b895f7f1d4c6d6c34aaf65c904042f22de2833099ed0da5655f1d71d",
          "transactionIndex": "0xc",
          "logIndex": "0x2e",
          "removed": false
        },
        {
          "address": "0x57AE4356320e65fbab8679cC2FD05C0b9CA608D2",
          "topics": [
            "0xb0f8a29d221d596b0eb4fbccfafbd58102fe1bd92f55e6d5b19cd7393c1d577e",
            "0x0000000000000000000000000000000000000000000000000000000000aa36a7",
            "0x000000000000000000000000b464f4582e62f6eb3cf506e4135f92bd198eb03e",
            "0x0000000000000000000000000000000000000000000000000000000000000005"
          ],
          "data": "0x0000000000000000000000009cfd63ac3d8457b9462be4d5a4fcdcf0163ca405",
          "blockHash": "0xc7143934f170bbe9f94d5972a2053c908bef43bf30ef3a28ff98026b143ff230",
          "blockNumber": "0x4ec1ce",
          "transactionHash": "0x7ba4ec97b895f7f1d4c6d6c34aaf65c904042f22de2833099ed0da5655f1d71d",
          "transactionIndex": "0xc",
          "logIndex": "0x2f",
          "removed": false
        },
        {
          "address": "0x57AE4356320e65fbab8679cC2FD05C0b9CA608D2",
          "topics": [
            "0x45d82cad942fa2e4cfe12a8e0c0b8ecb938b1c95496042dc75f0ecf94cc794f2"
          ],
          "data": "0x0000000000000000000000009cfd63ac3d8457b9462be4d5a4fcdcf0163ca4050000000000000000000000006c88f438cbfd9866dcd067ffe18b951f19b968da",
          "blockHash": "0xc7143934f170bbe9f94d5972a2053c908bef43bf30ef3a28ff98026b143ff230",
          "blockNumber": "0x4ec1ce",
          "transactionHash": "0x7ba4ec97b895f7f1d4c6d6c34aaf65c904042f22de2833099ed0da5655f1d71d",
          "transactionIndex": "0xc",
          "logIndex": "0x30",
          "removed": false
        },
        {
          "address": "0x57AE4356320e65fbab8679cC2FD05C0b9CA608D2",
          "topics": [
            "0xe8b4e5e3b3081bb5e138b90953bc4b8d4bd4a144a957791f2c1164211f3fffdc",
            "0x0000000000000000000000000000000000000000000000000000000000aa36a7",
            "0x000000000000000000000000b464f4582e62f6eb3cf506e4135f92bd198eb03e",
            "0x0000000000000000000000000000000000000000000000000000000000000005"
          ],
          "data": "0x0000000000000000000000009cfd63ac3d8457b9462be4d5a4fcdcf0163ca4050000000000000000000000006c88f438cbfd9866dcd067ffe18b951f19b968da",
          "blockHash": "0xc7143934f170bbe9f94d5972a2053c908bef43bf30ef3a28ff98026b143ff230",
          "blockNumber": "0x4ec1ce",
          "transactionHash": "0x7ba4ec97b895f7f1d4c6d6c34aaf65c904042f22de2833099ed0da5655f1d71d",
          "transactionIndex": "0xc",
          "logIndex": "0x31",
          "removed": false
        },
        {
          "address": "0x0baA92F82d8992Ff152047f29084079c263BE7F7",
          "topics": [
            "0xa6e4d1983948888a2be7e084c14834fc01066c7b1173b1d505a1a882ae310a3e",
            "0x0000000000000000000000009a3a5edddfee1e3a1bbef6fdf0850b10d4979405",
            "0x0000000000000000000000009cfd63ac3d8457b9462be4d5a4fcdcf0163ca405",
            "0x0000000000000000000000000000000000000000000000000000000000000000"
          ],
          "data": "0x",
          "blockHash": "0xc7143934f170bbe9f94d5972a2053c908bef43bf30ef3a28ff98026b143ff230",
          "blockNumber": "0x4ec1ce",
          "transactionHash": "0x7ba4ec97b895f7f1d4c6d6c34aaf65c904042f22de2833099ed0da5655f1d71d",
          "transactionIndex": "0xc",
          "logIndex": "0x32",
          "removed": false
        }
      ],
      "status": "0x1",
      "logsBloom": "0x44010000000000200000000400000004000080000000000000000004000800000000000000800000000000000000080002000000000000000040000000000008200010008000000000000000000000000000000000000000008080000000000000000000020000001000000000000800002000000000000000000002000000004000000000802000000000000000001000000800000000000000000200000000000001100000000000040000102000400800000000200000000000000200000000000000000100000010200000000000100000000000000000000001000020000000000000000000001004000000080000000000000000000000000000001100",
      "type": "0x2",
      "effectiveGasPrice": "0xba5ef1d1"
    },
    {
      "transactionHash": "0x755a328a0f44e3f7e5fadc1f173f61000f5a547d78ab04b9d74b9e35e416c9dc",
      "transactionIndex": "0xd",
      "blockHash": "0xc7143934f170bbe9f94d5972a2053c908bef43bf30ef3a28ff98026b143ff230",
      "blockNumber": "0x4ec1ce",
      "from": "0x9A3A5EdDDFEe1E3A1BBef6Fdf0850B10D4979405",
      "to": "0x0baA92F82d8992Ff152047f29084079c263BE7F7",
      "cumulativeGasUsed": "0x23c595",
      "gasUsed": "0x2d299",
      "contractAddress": null,
      "logs": [
        {
          "address": "0x000000006551c19487814612e58FE06813775758",
          "topics": [
            "0x79f19b3655ee38b1ce526556b7731a20c8f218fbda4a3990b6cc4172fdf88722",
            "0x00000000000000000000000067df68ae71e9ebbd9c6ddfc18b7983540fee6eb9",
            "0x000000000000000000000000b464f4582e62f6eb3cf506e4135f92bd198eb03e",
            "0x0000000000000000000000000000000000000000000000000000000000000006"
          ],
          "data": "0x000000000000000000000000cd8125b756296134751d93d7f2c96da5dfdcae2800000000000000000000000000000000000000000000000000000000000000000000000000000000000000000000000000000000000000000000000000aa36a7",
          "blockHash": "0xc7143934f170bbe9f94d5972a2053c908bef43bf30ef3a28ff98026b143ff230",
          "blockNumber": "0x4ec1ce",
          "transactionHash": "0x755a328a0f44e3f7e5fadc1f173f61000f5a547d78ab04b9d74b9e35e416c9dc",
          "transactionIndex": "0xd",
          "logIndex": "0x33",
          "removed": false
        },
        {
          "address": "0xA3067eb696e55F885aE229DF16e5fD75a739CCDF",
          "topics": [
            "0x5be70b68c8361762980ec7d425d79fd33f6d49cac8a498e6ddf514f995b987f7",
            "0x000000000000000000000000cd8125b756296134751d93d7f2c96da5dfdcae28",
            "0x00000000000000000000000067df68ae71e9ebbd9c6ddfc18b7983540fee6eb9",
            "0x0000000000000000000000000000000000000000000000000000000000aa36a7"
          ],
          "data": "0x000000000000000000000000b464f4582e62f6eb3cf506e4135f92bd198eb03e0000000000000000000000000000000000000000000000000000000000000006",
          "blockHash": "0xc7143934f170bbe9f94d5972a2053c908bef43bf30ef3a28ff98026b143ff230",
          "blockNumber": "0x4ec1ce",
          "transactionHash": "0x755a328a0f44e3f7e5fadc1f173f61000f5a547d78ab04b9d74b9e35e416c9dc",
          "transactionIndex": "0xd",
          "logIndex": "0x34",
          "removed": false
        },
        {
          "address": "0x57AE4356320e65fbab8679cC2FD05C0b9CA608D2",
          "topics": [
            "0xb0f8a29d221d596b0eb4fbccfafbd58102fe1bd92f55e6d5b19cd7393c1d577e",
            "0x0000000000000000000000000000000000000000000000000000000000aa36a7",
            "0x000000000000000000000000b464f4582e62f6eb3cf506e4135f92bd198eb03e",
            "0x0000000000000000000000000000000000000000000000000000000000000006"
          ],
          "data": "0x000000000000000000000000cd8125b756296134751d93d7f2c96da5dfdcae28",
          "blockHash": "0xc7143934f170bbe9f94d5972a2053c908bef43bf30ef3a28ff98026b143ff230",
          "blockNumber": "0x4ec1ce",
          "transactionHash": "0x755a328a0f44e3f7e5fadc1f173f61000f5a547d78ab04b9d74b9e35e416c9dc",
          "transactionIndex": "0xd",
          "logIndex": "0x35",
          "removed": false
        },
        {
          "address": "0x57AE4356320e65fbab8679cC2FD05C0b9CA608D2",
          "topics": [
            "0x45d82cad942fa2e4cfe12a8e0c0b8ecb938b1c95496042dc75f0ecf94cc794f2"
          ],
          "data": "0x000000000000000000000000cd8125b756296134751d93d7f2c96da5dfdcae280000000000000000000000006c88f438cbfd9866dcd067ffe18b951f19b968da",
          "blockHash": "0xc7143934f170bbe9f94d5972a2053c908bef43bf30ef3a28ff98026b143ff230",
          "blockNumber": "0x4ec1ce",
          "transactionHash": "0x755a328a0f44e3f7e5fadc1f173f61000f5a547d78ab04b9d74b9e35e416c9dc",
          "transactionIndex": "0xd",
          "logIndex": "0x36",
          "removed": false
        },
        {
          "address": "0x57AE4356320e65fbab8679cC2FD05C0b9CA608D2",
          "topics": [
            "0xe8b4e5e3b3081bb5e138b90953bc4b8d4bd4a144a957791f2c1164211f3fffdc",
            "0x0000000000000000000000000000000000000000000000000000000000aa36a7",
            "0x000000000000000000000000b464f4582e62f6eb3cf506e4135f92bd198eb03e",
            "0x0000000000000000000000000000000000000000000000000000000000000006"
          ],
          "data": "0x000000000000000000000000cd8125b756296134751d93d7f2c96da5dfdcae280000000000000000000000006c88f438cbfd9866dcd067ffe18b951f19b968da",
          "blockHash": "0xc7143934f170bbe9f94d5972a2053c908bef43bf30ef3a28ff98026b143ff230",
          "blockNumber": "0x4ec1ce",
          "transactionHash": "0x755a328a0f44e3f7e5fadc1f173f61000f5a547d78ab04b9d74b9e35e416c9dc",
          "transactionIndex": "0xd",
          "logIndex": "0x37",
          "removed": false
        },
        {
          "address": "0x0baA92F82d8992Ff152047f29084079c263BE7F7",
          "topics": [
            "0xa6e4d1983948888a2be7e084c14834fc01066c7b1173b1d505a1a882ae310a3e",
            "0x0000000000000000000000009a3a5edddfee1e3a1bbef6fdf0850b10d4979405",
            "0x000000000000000000000000cd8125b756296134751d93d7f2c96da5dfdcae28",
            "0x0000000000000000000000000000000000000000000000000000000000000000"
          ],
          "data": "0x",
          "blockHash": "0xc7143934f170bbe9f94d5972a2053c908bef43bf30ef3a28ff98026b143ff230",
          "blockNumber": "0x4ec1ce",
          "transactionHash": "0x755a328a0f44e3f7e5fadc1f173f61000f5a547d78ab04b9d74b9e35e416c9dc",
          "transactionIndex": "0xd",
          "logIndex": "0x38",
          "removed": false
        }
      ],
      "status": "0x1",
      "logsBloom": "0x44010000000000200000000400000004000080000000000000000004000800000000000000800000000000000000080002000000000400000050000000000008200000008008000000000000000000000000000000000000008080000000000000000000020000001000000000000800002000000000000000000002000000004000000400802000000000000000000000000000000000000000000000000000000000100000000000000000102000400800020000200000000000080200000000000000000100000010200000000000100000000000000000000001000020000000000000000000001004000000080000000000000000000000000000001100",
      "type": "0x2",
      "effectiveGasPrice": "0xba5ef1d1"
    },
    {
      "transactionHash": "0x31df2bd532ccbf443d206d02c6358e3f7628e6de3aec31af04d45f33de107078",
      "transactionIndex": "0xe",
      "blockHash": "0xc7143934f170bbe9f94d5972a2053c908bef43bf30ef3a28ff98026b143ff230",
      "blockNumber": "0x4ec1ce",
      "from": "0x9A3A5EdDDFEe1E3A1BBef6Fdf0850B10D4979405",
      "to": "0xB76441f5802DBfA7244C904871F3747E371C3C78",
      "cumulativeGasUsed": "0x2427ff",
      "gasUsed": "0x626a",
      "contractAddress": null,
      "logs": [],
      "status": "0x1",
      "logsBloom": "0x00000000000000000000000000000000000000000000000000000000000000000000000000000000000000000000000000000000000000000000000000000000000000000000000000000000000000000000000000000000000000000000000000000000000000000000000000000000000000000000000000000000000000000000000000000000000000000000000000000000000000000000000000000000000000000000000000000000000000000000000000000000000000000000000000000000000000000000000000000000000000000000000000000000000000000000000000000000000000000000000000000000000000000000000000000000",
      "type": "0x2",
      "effectiveGasPrice": "0xba5ef1d1"
    },
    {
      "transactionHash": "0x92e77053565703786320864fb3236bf60cfa301c356465e5d76b0d295454be3c",
      "transactionIndex": "0xf",
      "blockHash": "0xc7143934f170bbe9f94d5972a2053c908bef43bf30ef3a28ff98026b143ff230",
      "blockNumber": "0x4ec1ce",
      "from": "0x9A3A5EdDDFEe1E3A1BBef6Fdf0850B10D4979405",
      "to": "0x9cFd63Ac3D8457B9462bE4d5A4FCDCf0163ca405",
      "cumulativeGasUsed": "0x262d6a",
      "gasUsed": "0x2056b",
      "contractAddress": null,
      "logs": [
        {
          "address": "0xB76441f5802DBfA7244C904871F3747E371C3C78",
          "topics": [
            "0x8f0fb229f51592112b01916daccbee10c2a8dc2c1c81d2138c12060fbcfac88a",
            "0x0000000000000000000000009cfd63ac3d8457b9462be4d5a4fcdcf0163ca405",
            "0x0000000000000000000000009a3a5edddfee1e3a1bbef6fdf0850b10d4979405",
            "0x00000000000000000000000032f0471e404096b978248d0ece3a8998d87a4b67"
          ],
          "data": "0x00000000000000000000000000000000000000000000000000000000000000000000000000000000000000000000000000000000000000000000000000000001",
          "blockHash": "0xc7143934f170bbe9f94d5972a2053c908bef43bf30ef3a28ff98026b143ff230",
          "blockNumber": "0x4ec1ce",
          "transactionHash": "0x92e77053565703786320864fb3236bf60cfa301c356465e5d76b0d295454be3c",
          "transactionIndex": "0xf",
          "logIndex": "0x39",
          "removed": false
        }
      ],
      "status": "0x1",
      "logsBloom": "0x00000000000000000000000000000000000000000000000000000000000000000010000000000000000000000000000000000000000000000000000000000000000000000000000000000000000000000000000000000000408000000000000000000000000000001000000000080000000000000000000000000000000000000000000000000000000000000000000008100000000000000000000200000000000001000000000000040008000000000000000000200000000000000000000000000000000000000108000000000000000000000000000000000000000000000000000000000000000800000000000000000000000000000000000000000000",
      "type": "0x2",
      "effectiveGasPrice": "0xba5ef1d1"
    }
  ],
  "libraries": [],
  "pending": [],
  "returns": {},
  "timestamp": 1706325113,
  "chain": 11155111,
  "multi": false,
  "commit": "8836092"
}