{
  "transactions": [
    {
      "hash": "0x11a6faf7cb6492582842d7e2a27b34d2f168dbdb1d2860e07610851be271f33e",
      "transactionType": "CALL",
      "contractName": null,
      "contractAddress": "0xB464F4582e62F6eB3CF506E4135f92BD198EB03E",
      "function": "mint(address)",
      "arguments": [
        "0x9A3A5EdDDFEe1E3A1BBef6Fdf0850B10D4979405"
      ],
      "transaction": {
        "type": "0x02",
        "from": "0x9a3a5edddfee1e3a1bbef6fdf0850b10d4979405",
        "to": "0xb464f4582e62f6eb3cf506e4135f92bd198eb03e",
        "gas": "0x1327c",
        "value": "0x0",
        "data": "0x6a6278420000000000000000000000009a3a5edddfee1e3a1bbef6fdf0850b10d4979405",
        "nonce": "0x61",
        "accessList": []
      },
      "additionalContracts": [],
      "isFixedGasLimit": false
    },
    {
      "hash": "0xbac07287e14bda0c161ac0db2adb7d8d10b6690ccef73768ca5d570619ba2431",
      "transactionType": "CALL",
      "contractName": null,
      "contractAddress": "0xB464F4582e62F6eB3CF506E4135f92BD198EB03E",
      "function": "mint(address)",
      "arguments": [
        "0x9A3A5EdDDFEe1E3A1BBef6Fdf0850B10D4979405"
      ],
      "transaction": {
        "type": "0x02",
        "from": "0x9a3a5edddfee1e3a1bbef6fdf0850b10d4979405",
        "to": "0xb464f4582e62f6eb3cf506e4135f92bd198eb03e",
        "gas": "0x1327c",
        "value": "0x0",
        "data": "0x6a6278420000000000000000000000009a3a5edddfee1e3a1bbef6fdf0850b10d4979405",
        "nonce": "0x62",
        "accessList": []
      },
      "additionalContracts": [],
      "isFixedGasLimit": false
    },
    {
      "hash": "0x159754470a584561bfd81fb3b868f82a07c91d2af10833a9a78cce87ec824148",
      "transactionType": "CALL",
      "contractName": null,
      "contractAddress": "0xB464F4582e62F6eB3CF506E4135f92BD198EB03E",
      "function": "mint(address)",
      "arguments": [
        "0x9A3A5EdDDFEe1E3A1BBef6Fdf0850B10D4979405"
      ],
      "transaction": {
        "type": "0x02",
        "from": "0x9a3a5edddfee1e3a1bbef6fdf0850b10d4979405",
        "to": "0xb464f4582e62f6eb3cf506e4135f92bd198eb03e",
        "gas": "0x1327c",
        "value": "0x0",
        "data": "0x6a6278420000000000000000000000009a3a5edddfee1e3a1bbef6fdf0850b10d4979405",
        "nonce": "0x63",
        "accessList": []
      },
      "additionalContracts": [],
      "isFixedGasLimit": false
    },
    {
      "hash": "0x7840e29f3af7c0f690f4f9a3ca1c22e517325320b15ef1cd001c3541c2d36cb0",
      "transactionType": "CALL",
      "contractName": null,
      "contractAddress": "0xB464F4582e62F6eB3CF506E4135f92BD198EB03E",
      "function": "mint(address)",
      "arguments": [
        "0x9A3A5EdDDFEe1E3A1BBef6Fdf0850B10D4979405"
      ],
      "transaction": {
        "type": "0x02",
        "from": "0x9a3a5edddfee1e3a1bbef6fdf0850b10d4979405",
        "to": "0xb464f4582e62f6eb3cf506e4135f92bd198eb03e",
        "gas": "0x1327c",
        "value": "0x0",
        "data": "0x6a6278420000000000000000000000009a3a5edddfee1e3a1bbef6fdf0850b10d4979405",
        "nonce": "0x64",
        "accessList": []
      },
      "additionalContracts": [],
      "isFixedGasLimit": false
    },
    {
      "hash": "0xf7d89ce40dd9e10aaa63686105def775f9acc864648b2c3c23992815f258253d",
      "transactionType": "CALL",
      "contractName": null,
      "contractAddress": "0x0baA92F82d8992Ff152047f29084079c263BE7F7",
      "function": "registerRootIp(uint256,address,uint256)",
      "arguments": [
        "0",
        "0xB464F4582e62F6eB3CF506E4135f92BD198EB03E",
        "17"
      ],
      "transaction": {
        "type": "0x02",
        "from": "0x9a3a5edddfee1e3a1bbef6fdf0850b10d4979405",
        "to": "0x0baa92f82d8992ff152047f29084079c263be7f7",
        "gas": "0x3e604",
        "value": "0x0",
        "data": "0xa38f3a7b0000000000000000000000000000000000000000000000000000000000000000000000000000000000000000b464f4582e62f6eb3cf506e4135f92bd198eb03e0000000000000000000000000000000000000000000000000000000000000011",
        "nonce": "0x65",
        "accessList": []
      },
      "additionalContracts": [
        {
          "transactionType": "CREATE2",
          "address": "0x48f92b757e47e367fD73C91B7392967B9B095dEb",
          "initCode": "0x3d60ad80600a3d3981f3363d3d373d3d3d363d7367df68ae71e9ebbd9c6ddfc18b7983540fee6eb95af43d82803e903d91602b57fd5bf300000000000000000000000000000000000000000000000000000000000000000000000000000000000000000000000000000000000000000000000000aa36a7000000000000000000000000b464f4582e62f6eb3cf506e4135f92bd198eb03e0000000000000000000000000000000000000000000000000000000000000011"
        }
      ],
      "isFixedGasLimit": false
    },
    {
      "hash": "0x5f32d724d6e05417b98a57949ddd735ba519b57f6cce63504140fec853cf2d63",
      "transactionType": "CALL",
      "contractName": null,
      "contractAddress": "0x0baA92F82d8992Ff152047f29084079c263BE7F7",
      "function": "registerRootIp(uint256,address,uint256)",
      "arguments": [
        "0",
        "0xB464F4582e62F6eB3CF506E4135f92BD198EB03E",
        "18"
      ],
      "transaction": {
        "type": "0x02",
        "from": "0x9a3a5edddfee1e3a1bbef6fdf0850b10d4979405",
        "to": "0x0baa92f82d8992ff152047f29084079c263be7f7",
        "gas": "0x3e604",
        "value": "0x0",
        "data": "0xa38f3a7b0000000000000000000000000000000000000000000000000000000000000000000000000000000000000000b464f4582e62f6eb3cf506e4135f92bd198eb03e0000000000000000000000000000000000000000000000000000000000000012",
        "nonce": "0x66",
        "accessList": []
      },
      "additionalContracts": [
        {
          "transactionType": "CREATE2",
          "address": "0x7cb24bF62aF6cC16257b80B0D86D96290613A529",
          "initCode": "0x3d60ad80600a3d3981f3363d3d373d3d3d363d7367df68ae71e9ebbd9c6ddfc18b7983540fee6eb95af43d82803e903d91602b57fd5bf300000000000000000000000000000000000000000000000000000000000000000000000000000000000000000000000000000000000000000000000000aa36a7000000000000000000000000b464f4582e62f6eb3cf506e4135f92bd198eb03e0000000000000000000000000000000000000000000000000000000000000012"
        }
      ],
      "isFixedGasLimit": false
    },
    {
      "hash": "0x0dad2457690cba81305385e9ad9a1f1f21116529dbd3001dd4ecc45f6d865103",
      "transactionType": "CALL",
      "contractName": null,
      "contractAddress": "0xB76441f5802DBfA7244C904871F3747E371C3C78",
      "function": "setGlobalPermission(address,address,bytes4,uint8)",
      "arguments": [
        "0x0baA92F82d8992Ff152047f29084079c263BE7F7",
        "0x32f0471E404096B978248d0ECE3A8998D87a4b67",
        "0x0000000000000000000000000000000000000000000000000000000000000000",
        "1"
      ],
      "transaction": {
        "type": "0x02",
        "from": "0x9a3a5edddfee1e3a1bbef6fdf0850b10d4979405",
        "to": "0xb76441f5802dbfa7244c904871f3747e371c3c78",
        "gas": "0x8fed",
        "value": "0x0",
        "data": "0x9f1ac51d0000000000000000000000000baa92f82d8992ff152047f29084079c263be7f700000000000000000000000032f0471e404096b978248d0ece3a8998d87a4b6700000000000000000000000000000000000000000000000000000000000000000000000000000000000000000000000000000000000000000000000000000001",
        "nonce": "0x67",
        "accessList": []
      },
      "additionalContracts": [],
      "isFixedGasLimit": false
    },
    {
      "hash": "0x56f604ce4e4404412aa73843b0014a3c7b40e8dc07c1af75eee4ff6e6354d396",
      "transactionType": "CALL",
      "contractName": "IPMetadataProvider",
      "contractAddress": "0x48f92b757e47e367fD73C91B7392967B9B095dEb",
      "function": null,
      "arguments": null,
      "transaction": {
        "type": "0x02",
        "from": "0x9a3a5edddfee1e3a1bbef6fdf0850b10d4979405",
        "to": "0x48f92b757e47e367fd73c91b7392967b9b095deb",
        "gas": "0x2f4b8",
        "value": "0x0",
        "data": "0xb61d27f6000000000000000000000000b76441f5802dbfa7244c904871f3747e371c3c780000000000000000000000000000000000000000000000000000000000000000000000000000000000000000000000000000000000000000000000000000006000000000000000000000000000000000000000000000000000000000000000a47bac65fd00000000000000000000000048f92b757e47e367fd73c91b7392967b9b095deb0000000000000000000000009a3a5edddfee1e3a1bbef6fdf0850b10d497940500000000000000000000000032f0471e404096b978248d0ece3a8998d87a4b670000000000000000000000000000000000000000000000000000000000000000000000000000000000000000000000000000000000000000000000000000000100000000000000000000000000000000000000000000000000000000",
        "nonce": "0x68",
        "accessList": []
      },
      "additionalContracts": [],
      "isFixedGasLimit": false
    }
  ],
  "receipts": [
    {
      "transactionHash": "0x11a6faf7cb6492582842d7e2a27b34d2f168dbdb1d2860e07610851be271f33e",
      "transactionIndex": "0x7",
      "blockHash": "0x106e0bb4b433860dacf5db53dcf4cd23bae569bba3a3474efab0a490bafc6948",
      "blockNumber": "0x4ec51d",
      "from": "0x9A3A5EdDDFEe1E3A1BBef6Fdf0850B10D4979405",
      "to": "0xB464F4582e62F6eB3CF506E4135f92BD198EB03E",
      "cumulativeGasUsed": "0x77024",
      "gasUsed": "0xdde4",
      "contractAddress": null,
      "logs": [
        {
          "address": "0xB464F4582e62F6eB3CF506E4135f92BD198EB03E",
          "topics": [
            "0xddf252ad1be2c89b69c2b068fc378daa952ba7f163c4a11628f55a4df523b3ef",
            "0x0000000000000000000000000000000000000000000000000000000000000000",
            "0x0000000000000000000000009a3a5edddfee1e3a1bbef6fdf0850b10d4979405",
            "0x0000000000000000000000000000000000000000000000000000000000000011"
          ],
          "data": "0x",
          "blockHash": "0x106e0bb4b433860dacf5db53dcf4cd23bae569bba3a3474efab0a490bafc6948",
          "blockNumber": "0x4ec51d",
          "transactionHash": "0x11a6faf7cb6492582842d7e2a27b34d2f168dbdb1d2860e07610851be271f33e",
          "transactionIndex": "0x7",
          "logIndex": "0x8",
          "removed": false
        }
      ],
      "status": "0x1",
      "logsBloom": "0x00000000000000000000000000000000000000000000000000000000000000000000000000000000000000000000000000000000000000000000000000000000000000000000000000000008000000000000000000000000008000000000000000000000020000001000000000000800000000004000000000000010000000000000000000000000000000000000000000000000001000000000000000000000000000000000000000000000000000000000000000200000008000000400000000001002000000000000000000000000000000000000000000000000000020000000000000000000000000000000000000000000000000000000000020000000",
      "type": "0x2",
      "effectiveGasPrice": "0xb91ba824"
    },
    {
      "transactionHash": "0xbac07287e14bda0c161ac0db2adb7d8d10b6690ccef73768ca5d570619ba2431",
      "transactionIndex": "0x8",
      "blockHash": "0x106e0bb4b433860dacf5db53dcf4cd23bae569bba3a3474efab0a490bafc6948",
      "blockNumber": "0x4ec51d",
      "from": "0x9A3A5EdDDFEe1E3A1BBef6Fdf0850B10D4979405",
      "to": "0xB464F4582e62F6eB3CF506E4135f92BD198EB03E",
      "cumulativeGasUsed": "0x84e08",
      "gasUsed": "0xdde4",
      "contractAddress": null,
      "logs": [
        {
          "address": "0xB464F4582e62F6eB3CF506E4135f92BD198EB03E",
          "topics": [
            "0xddf252ad1be2c89b69c2b068fc378daa952ba7f163c4a11628f55a4df523b3ef",
            "0x0000000000000000000000000000000000000000000000000000000000000000",
            "0x0000000000000000000000009a3a5edddfee1e3a1bbef6fdf0850b10d4979405",
            "0x0000000000000000000000000000000000000000000000000000000000000012"
          ],
          "data": "0x",
          "blockHash": "0x106e0bb4b433860dacf5db53dcf4cd23bae569bba3a3474efab0a490bafc6948",
          "blockNumber": "0x4ec51d",
          "transactionHash": "0xbac07287e14bda0c161ac0db2adb7d8d10b6690ccef73768ca5d570619ba2431",
          "transactionIndex": "0x8",
          "logIndex": "0x9",
          "removed": false
        }
      ],
      "status": "0x1",
      "logsBloom": "0x00000000000000000000000000000000000000000000000000000000000000000000000000000000000000000000000000000000000000000000000000000000000000000000000000000008000000000000000000000000008000000000000000000000020000001000000000000800000000000000000000000010000000000000000000000000000000000000040000000000001000000000000000000000000000000000000000000000000000000000000000200040008000000000000000000002000000000400000000000000000000000000000000000000000020000000000000000000000000000000000000000000000000000000000020000000",
      "type": "0x2",
      "effectiveGasPrice": "0xb91ba824"
    },
    {
      "transactionHash": "0x159754470a584561bfd81fb3b868f82a07c91d2af10833a9a78cce87ec824148",
      "transactionIndex": "0x9",
      "blockHash": "0x106e0bb4b433860dacf5db53dcf4cd23bae569bba3a3474efab0a490bafc6948",
      "blockNumber": "0x4ec51d",
      "from": "0x9A3A5EdDDFEe1E3A1BBef6Fdf0850B10D4979405",
      "to": "0xB464F4582e62F6eB3CF506E4135f92BD198EB03E",
      "cumulativeGasUsed": "0x92bec",
      "gasUsed": "0xdde4",
      "contractAddress": null,
      "logs": [
        {
          "address": "0xB464F4582e62F6eB3CF506E4135f92BD198EB03E",
          "topics": [
            "0xddf252ad1be2c89b69c2b068fc378daa952ba7f163c4a11628f55a4df523b3ef",
            "0x0000000000000000000000000000000000000000000000000000000000000000",
            "0x0000000000000000000000009a3a5edddfee1e3a1bbef6fdf0850b10d4979405",
            "0x0000000000000000000000000000000000000000000000000000000000000013"
          ],
          "data": "0x",
          "blockHash": "0x106e0bb4b433860dacf5db53dcf4cd23bae569bba3a3474efab0a490bafc6948",
          "blockNumber": "0x4ec51d",
          "transactionHash": "0x159754470a584561bfd81fb3b868f82a07c91d2af10833a9a78cce87ec824148",
          "transactionIndex": "0x9",
          "logIndex": "0xa",
          "removed": false
        }
      ],
      "status": "0x1",
      "logsBloom": "0x20000000000000000000000000800000000000000000000000000000000000000000000040000000000000000000000000000000000000000000000000000000000000000000000000000008000000000000000000000000008000000000000000000000020000001000000000000800000000000000000000000010000000000000000000000000000000000000000000000000001000000000000000000000000000000000000000000000000000000000000000200000008000000000000000000002000000000000000000000000000000000000000000000000000020000000000000000000000000000000000000000000000000000000000020000000",
      "type": "0x2",
      "effectiveGasPrice": "0xb91ba824"
    },
    {
      "transactionHash": "0x7840e29f3af7c0f690f4f9a3ca1c22e517325320b15ef1cd001c3541c2d36cb0",
      "transactionIndex": "0xa",
      "blockHash": "0x106e0bb4b433860dacf5db53dcf4cd23bae569bba3a3474efab0a490bafc6948",
      "blockNumber": "0x4ec51d",
      "from": "0x9A3A5EdDDFEe1E3A1BBef6Fdf0850B10D4979405",
      "to": "0xB464F4582e62F6eB3CF506E4135f92BD198EB03E",
      "cumulativeGasUsed": "0xa09d0",
      "gasUsed": "0xdde4",
      "contractAddress": null,
      "logs": [
        {
          "address": "0xB464F4582e62F6eB3CF506E4135f92BD198EB03E",
          "topics": [
            "0xddf252ad1be2c89b69c2b068fc378daa952ba7f163c4a11628f55a4df523b3ef",
            "0x0000000000000000000000000000000000000000000000000000000000000000",
            "0x0000000000000000000000009a3a5edddfee1e3a1bbef6fdf0850b10d4979405",
            "0x0000000000000000000000000000000000000000000000000000000000000014"
          ],
          "data": "0x",
          "blockHash": "0x106e0bb4b433860dacf5db53dcf4cd23bae569bba3a3474efab0a490bafc6948",
          "blockNumber": "0x4ec51d",
          "transactionHash": "0x7840e29f3af7c0f690f4f9a3ca1c22e517325320b15ef1cd001c3541c2d36cb0",
          "transactionIndex": "0xa",
          "logIndex": "0xb",
          "removed": false
        }
      ],
      "status": "0x1",
      "logsBloom": "0x00000000000000000000000000000000000000000000000000000000000000000000000000000000000000000000000000002000000000000000000000000000000000000000000000000008000000000000000000000000008000000000000000000000020000001000000000000800000000000000000000000010000000000000000000000000000000000000000000000000001400000000000000000000000000000000000020000000000000000000000000200000008000000000000000000002000000000000000000000000000000000000000000000000000020000000000000000000000000000000000000000000000000000000000020000000",
      "type": "0x2",
      "effectiveGasPrice": "0xb91ba824"
    },
    {
      "transactionHash": "0xf7d89ce40dd9e10aaa63686105def775f9acc864648b2c3c23992815f258253d",
      "transactionIndex": "0xb",
      "blockHash": "0x106e0bb4b433860dacf5db53dcf4cd23bae569bba3a3474efab0a490bafc6948",
      "blockNumber": "0x4ec51d",
      "from": "0x9A3A5EdDDFEe1E3A1BBef6Fdf0850B10D4979405",
      "to": "0x0baA92F82d8992Ff152047f29084079c263BE7F7",
      "cumulativeGasUsed": "0xcdc69",
      "gasUsed": "0x2d299",
      "contractAddress": null,
      "logs": [
        {
          "address": "0x000000006551c19487814612e58FE06813775758",
          "topics": [
            "0x79f19b3655ee38b1ce526556b7731a20c8f218fbda4a3990b6cc4172fdf88722",
            "0x00000000000000000000000067df68ae71e9ebbd9c6ddfc18b7983540fee6eb9",
            "0x000000000000000000000000b464f4582e62f6eb3cf506e4135f92bd198eb03e",
            "0x0000000000000000000000000000000000000000000000000000000000000011"
          ],
          "data": "0x00000000000000000000000048f92b757e47e367fd73c91b7392967b9b095deb00000000000000000000000000000000000000000000000000000000000000000000000000000000000000000000000000000000000000000000000000aa36a7",
          "blockHash": "0x106e0bb4b433860dacf5db53dcf4cd23bae569bba3a3474efab0a490bafc6948",
          "blockNumber": "0x4ec51d",
          "transactionHash": "0xf7d89ce40dd9e10aaa63686105def775f9acc864648b2c3c23992815f258253d",
          "transactionIndex": "0xb",
          "logIndex": "0xc",
          "removed": false
        },
        {
          "address": "0xA3067eb696e55F885aE229DF16e5fD75a739CCDF",
          "topics": [
            "0x5be70b68c8361762980ec7d425d79fd33f6d49cac8a498e6ddf514f995b987f7",
            "0x00000000000000000000000048f92b757e47e367fd73c91b7392967b9b095deb",
            "0x00000000000000000000000067df68ae71e9ebbd9c6ddfc18b7983540fee6eb9",
            "0x0000000000000000000000000000000000000000000000000000000000aa36a7"
          ],
          "data": "0x000000000000000000000000b464f4582e62f6eb3cf506e4135f92bd198eb03e0000000000000000000000000000000000000000000000000000000000000011",
          "blockHash": "0x106e0bb4b433860dacf5db53dcf4cd23bae569bba3a3474efab0a490bafc6948",
          "blockNumber": "0x4ec51d",
          "transactionHash": "0xf7d89ce40dd9e10aaa63686105def775f9acc864648b2c3c23992815f258253d",
          "transactionIndex": "0xb",
          "logIndex": "0xd",
          "removed": false
        },
        {
          "address": "0x57AE4356320e65fbab8679cC2FD05C0b9CA608D2",
          "topics": [
            "0xb0f8a29d221d596b0eb4fbccfafbd58102fe1bd92f55e6d5b19cd7393c1d577e",
            "0x0000000000000000000000000000000000000000000000000000000000aa36a7",
            "0x000000000000000000000000b464f4582e62f6eb3cf506e4135f92bd198eb03e",
            "0x0000000000000000000000000000000000000000000000000000000000000011"
          ],
          "data": "0x00000000000000000000000048f92b757e47e367fd73c91b7392967b9b095deb",
          "blockHash": "0x106e0bb4b433860dacf5db53dcf4cd23bae569bba3a3474efab0a490bafc6948",
          "blockNumber": "0x4ec51d",
          "transactionHash": "0xf7d89ce40dd9e10aaa63686105def775f9acc864648b2c3c23992815f258253d",
          "transactionIndex": "0xb",
          "logIndex": "0xe",
          "removed": false
        },
        {
          "address": "0x57AE4356320e65fbab8679cC2FD05C0b9CA608D2",
          "topics": [
            "0x45d82cad942fa2e4cfe12a8e0c0b8ecb938b1c95496042dc75f0ecf94cc794f2"
          ],
          "data": "0x00000000000000000000000048f92b757e47e367fd73c91b7392967b9b095deb0000000000000000000000006c88f438cbfd9866dcd067ffe18b951f19b968da",
          "blockHash": "0x106e0bb4b433860dacf5db53dcf4cd23bae569bba3a3474efab0a490bafc6948",
          "blockNumber": "0x4ec51d",
          "transactionHash": "0xf7d89ce40dd9e10aaa63686105def775f9acc864648b2c3c23992815f258253d",
          "transactionIndex": "0xb",
          "logIndex": "0xf",
          "removed": false
        },
        {
          "address": "0x57AE4356320e65fbab8679cC2FD05C0b9CA608D2",
          "topics": [
            "0xe8b4e5e3b3081bb5e138b90953bc4b8d4bd4a144a957791f2c1164211f3fffdc",
            "0x0000000000000000000000000000000000000000000000000000000000aa36a7",
            "0x000000000000000000000000b464f4582e62f6eb3cf506e4135f92bd198eb03e",
            "0x0000000000000000000000000000000000000000000000000000000000000011"
          ],
          "data": "0x00000000000000000000000048f92b757e47e367fd73c91b7392967b9b095deb0000000000000000000000006c88f438cbfd9866dcd067ffe18b951f19b968da",
          "blockHash": "0x106e0bb4b433860dacf5db53dcf4cd23bae569bba3a3474efab0a490bafc6948",
          "blockNumber": "0x4ec51d",
          "transactionHash": "0xf7d89ce40dd9e10aaa63686105def775f9acc864648b2c3c23992815f258253d",
          "transactionIndex": "0xb",
          "logIndex": "0x10",
          "removed": false
        },
        {
          "address": "0x0baA92F82d8992Ff152047f29084079c263BE7F7",
          "topics": [
            "0xa6e4d1983948888a2be7e084c14834fc01066c7b1173b1d505a1a882ae310a3e",
            "0x0000000000000000000000009a3a5edddfee1e3a1bbef6fdf0850b10d4979405",
            "0x00000000000000000000000048f92b757e47e367fd73c91b7392967b9b095deb",
            "0x0000000000000000000000000000000000000000000000000000000000000000"
          ],
          "data": "0x",
          "blockHash": "0x106e0bb4b433860dacf5db53dcf4cd23bae569bba3a3474efab0a490bafc6948",
          "blockNumber": "0x4ec51d",
          "transactionHash": "0xf7d89ce40dd9e10aaa63686105def775f9acc864648b2c3c23992815f258253d",
          "transactionIndex": "0xb",
          "logIndex": "0x11",
          "removed": false
        }
      ],
      "status": "0x1",
      "logsBloom": "0x44010000000000200000000400000004000080000000000400000004000800000000000000800000000000000000080002000000000000000040000000000008200000008000000000000000000000000000000000000000008080000000000000000000020000001000000000000800002000004000000000000002000000004000000000802000000000000000000000000000000000000000000000000000000000100000000000000000102000400800000000200000000000000600000000001000000100000010200000000000100000000000000000000001000020000000002000000000001004000000280000000000000000000000000000001100",
      "type": "0x2",
      "effectiveGasPrice": "0xb91ba824"
    },
    {
      "transactionHash": "0x5f32d724d6e05417b98a57949ddd735ba519b57f6cce63504140fec853cf2d63",
      "transactionIndex": "0xc",
      "blockHash": "0x106e0bb4b433860dacf5db53dcf4cd23bae569bba3a3474efab0a490bafc6948",
      "blockNumber": "0x4ec51d",
      "from": "0x9A3A5EdDDFEe1E3A1BBef6Fdf0850B10D4979405",
      "to": "0x0baA92F82d8992Ff152047f29084079c263BE7F7",
      "cumulativeGasUsed": "0xfaf02",
      "gasUsed": "0x2d299",
      "contractAddress": null,
      "logs": [
        {
          "address": "0x000000006551c19487814612e58FE06813775758",
          "topics": [
            "0x79f19b3655ee38b1ce526556b7731a20c8f218fbda4a3990b6cc4172fdf88722",
            "0x00000000000000000000000067df68ae71e9ebbd9c6ddfc18b7983540fee6eb9",
            "0x000000000000000000000000b464f4582e62f6eb3cf506e4135f92bd198eb03e",
            "0x0000000000000000000000000000000000000000000000000000000000000012"
          ],
          "data": "0x0000000000000000000000007cb24bf62af6cc16257b80b0d86d96290613a52900000000000000000000000000000000000000000000000000000000000000000000000000000000000000000000000000000000000000000000000000aa36a7",
          "blockHash": "0x106e0bb4b433860dacf5db53dcf4cd23bae569bba3a3474efab0a490bafc6948",
          "blockNumber": "0x4ec51d",
          "transactionHash": "0x5f32d724d6e05417b98a57949ddd735ba519b57f6cce63504140fec853cf2d63",
          "transactionIndex": "0xc",
          "logIndex": "0x12",
          "removed": false
        },
        {
          "address": "0xA3067eb696e55F885aE229DF16e5fD75a739CCDF",
          "topics": [
            "0x5be70b68c8361762980ec7d425d79fd33f6d49cac8a498e6ddf514f995b987f7",
            "0x0000000000000000000000007cb24bf62af6cc16257b80b0d86d96290613a529",
            "0x00000000000000000000000067df68ae71e9ebbd9c6ddfc18b7983540fee6eb9",
            "0x0000000000000000000000000000000000000000000000000000000000aa36a7"
          ],
          "data": "0x000000000000000000000000b464f4582e62f6eb3cf506e4135f92bd198eb03e0000000000000000000000000000000000000000000000000000000000000012",
          "blockHash": "0x106e0bb4b433860dacf5db53dcf4cd23bae569bba3a3474efab0a490bafc6948",
          "blockNumber": "0x4ec51d",
          "transactionHash": "0x5f32d724d6e05417b98a57949ddd735ba519b57f6cce63504140fec853cf2d63",
          "transactionIndex": "0xc",
          "logIndex": "0x13",
          "removed": false
        },
        {
          "address": "0x57AE4356320e65fbab8679cC2FD05C0b9CA608D2",
          "topics": [
            "0xb0f8a29d221d596b0eb4fbccfafbd58102fe1bd92f55e6d5b19cd7393c1d577e",
            "0x0000000000000000000000000000000000000000000000000000000000aa36a7",
            "0x000000000000000000000000b464f4582e62f6eb3cf506e4135f92bd198eb03e",
            "0x0000000000000000000000000000000000000000000000000000000000000012"
          ],
          "data": "0x0000000000000000000000007cb24bf62af6cc16257b80b0d86d96290613a529",
          "blockHash": "0x106e0bb4b433860dacf5db53dcf4cd23bae569bba3a3474efab0a490bafc6948",
          "blockNumber": "0x4ec51d",
          "transactionHash": "0x5f32d724d6e05417b98a57949ddd735ba519b57f6cce63504140fec853cf2d63",
          "transactionIndex": "0xc",
          "logIndex": "0x14",
          "removed": false
        },
        {
          "address": "0x57AE4356320e65fbab8679cC2FD05C0b9CA608D2",
          "topics": [
            "0x45d82cad942fa2e4cfe12a8e0c0b8ecb938b1c95496042dc75f0ecf94cc794f2"
          ],
          "data": "0x0000000000000000000000007cb24bf62af6cc16257b80b0d86d96290613a5290000000000000000000000006c88f438cbfd9866dcd067ffe18b951f19b968da",
          "blockHash": "0x106e0bb4b433860dacf5db53dcf4cd23bae569bba3a3474efab0a490bafc6948",
          "blockNumber": "0x4ec51d",
          "transactionHash": "0x5f32d724d6e05417b98a57949ddd735ba519b57f6cce63504140fec853cf2d63",
          "transactionIndex": "0xc",
          "logIndex": "0x15",
          "removed": false
        },
        {
          "address": "0x57AE4356320e65fbab8679cC2FD05C0b9CA608D2",
          "topics": [
            "0xe8b4e5e3b3081bb5e138b90953bc4b8d4bd4a144a957791f2c1164211f3fffdc",
            "0x0000000000000000000000000000000000000000000000000000000000aa36a7",
            "0x000000000000000000000000b464f4582e62f6eb3cf506e4135f92bd198eb03e",
            "0x0000000000000000000000000000000000000000000000000000000000000012"
          ],
          "data": "0x0000000000000000000000007cb24bf62af6cc16257b80b0d86d96290613a5290000000000000000000000006c88f438cbfd9866dcd067ffe18b951f19b968da",
          "blockHash": "0x106e0bb4b433860dacf5db53dcf4cd23bae569bba3a3474efab0a490bafc6948",
          "blockNumber": "0x4ec51d",
          "transactionHash": "0x5f32d724d6e05417b98a57949ddd735ba519b57f6cce63504140fec853cf2d63",
          "transactionIndex": "0xc",
          "logIndex": "0x16",
          "removed": false
        },
        {
          "address": "0x0baA92F82d8992Ff152047f29084079c263BE7F7",
          "topics": [
            "0xa6e4d1983948888a2be7e084c14834fc01066c7b1173b1d505a1a882ae310a3e",
            "0x0000000000000000000000009a3a5edddfee1e3a1bbef6fdf0850b10d4979405",
            "0x0000000000000000000000007cb24bf62af6cc16257b80b0d86d96290613a529",
            "0x0000000000000000000000000000000000000000000000000000000000000000"
          ],
          "data": "0x",
          "blockHash": "0x106e0bb4b433860dacf5db53dcf4cd23bae569bba3a3474efab0a490bafc6948",
          "blockNumber": "0x4ec51d",
          "transactionHash": "0x5f32d724d6e05417b98a57949ddd735ba519b57f6cce63504140fec853cf2d63",
          "transactionIndex": "0xc",
          "logIndex": "0x17",
          "removed": false
        }
      ],
      "status": "0x1",
      "logsBloom": "0x44010000000000200000000400000004000080000000000000000004000800000000000000800000000000000000080002000000000000000040000000000008200000008000000000000000000000000000000000000000008080000000000000000000020000001000000000000800002000000000000000000002000000004000000000802000000000000000040000000000000000000000000000000000000000100000000000000000102000400800000000200040000000000200000000000000000101000410200000000000100000000000000000000401000020000000000000000000001014000000080000000000000000000000000000001100",
      "type": "0x2",
      "effectiveGasPrice": "0xb91ba824"
    },
    {
      "transactionHash": "0x0dad2457690cba81305385e9ad9a1f1f21116529dbd3001dd4ecc45f6d865103",
      "transactionIndex": "0xd",
      "blockHash": "0x106e0bb4b433860dacf5db53dcf4cd23bae569bba3a3474efab0a490bafc6948",
      "blockNumber": "0x4ec51d",
      "from": "0x9A3A5EdDDFEe1E3A1BBef6Fdf0850B10D4979405",
      "to": "0xB76441f5802DBfA7244C904871F3747E371C3C78",
      "cumulativeGasUsed": "0x10116c",
      "gasUsed": "0x626a",
      "contractAddress": null,
      "logs": [],
      "status": "0x1",
      "logsBloom": "0x00000000000000000000000000000000000000000000000000000000000000000000000000000000000000000000000000000000000000000000000000000000000000000000000000000000000000000000000000000000000000000000000000000000000000000000000000000000000000000000000000000000000000000000000000000000000000000000000000000000000000000000000000000000000000000000000000000000000000000000000000000000000000000000000000000000000000000000000000000000000000000000000000000000000000000000000000000000000000000000000000000000000000000000000000000000",
      "type": "0x2",
      "effectiveGasPrice": "0xb91ba824"
    },
    {
      "transactionHash": "0x56f604ce4e4404412aa73843b0014a3c7b40e8dc07c1af75eee4ff6e6354d396",
      "transactionIndex": "0xe",
      "blockHash": "0x106e0bb4b433860dacf5db53dcf4cd23bae569bba3a3474efab0a490bafc6948",
      "blockNumber": "0x4ec51d",
      "from": "0x9A3A5EdDDFEe1E3A1BBef6Fdf0850B10D4979405",
      "to": "0x48f92b757e47e367fD73C91B7392967B9B095dEb",
      "cumulativeGasUsed": "0x1216d7",
      "gasUsed": "0x2056b",
      "contractAddress": null,
      "logs": [
        {
          "address": "0xB76441f5802DBfA7244C904871F3747E371C3C78",
          "topics": [
            "0x8f0fb229f51592112b01916daccbee10c2a8dc2c1c81d2138c12060fbcfac88a",
            "0x00000000000000000000000048f92b757e47e367fd73c91b7392967b9b095deb",
            "0x0000000000000000000000009a3a5edddfee1e3a1bbef6fdf0850b10d4979405",
            "0x00000000000000000000000032f0471e404096b978248d0ece3a8998d87a4b67"
          ],
          "data": "0x00000000000000000000000000000000000000000000000000000000000000000000000000000000000000000000000000000000000000000000000000000001",
          "blockHash": "0x106e0bb4b433860dacf5db53dcf4cd23bae569bba3a3474efab0a490bafc6948",
          "blockNumber": "0x4ec51d",
          "transactionHash": "0x56f604ce4e4404412aa73843b0014a3c7b40e8dc07c1af75eee4ff6e6354d396",
          "transactionIndex": "0xe",
          "logIndex": "0x18",
          "removed": false
        }
      ],
      "status": "0x1",
      "logsBloom": "0x00000000000000000000000000000000000000000000000400000000000000000010000000000000000000000000000000000000000000000000000000000000000000000000000000000000000000000000000000000000408000000000000000000000000000001000000000080000000000000000000000000000000000000000000000000000000000000000000008100000000000000000000000000000000000000000000000000008000000000000000000200000000000000000000000000000000000000108000000000000000000000000000000000000000000000000002000000000000800000000200000000000000000000000000000000000",
      "type": "0x2",
      "effectiveGasPrice": "0xb91ba824"
    }
  ],
  "libraries": [],
  "pending": [],
  "returns": {},
  "timestamp": 1706335960,
  "chain": 11155111,
  "multi": false,
  "commit": "8836092"
}