{
  "transactions": [
    {
      "hash": "0x11a6faf7cb6492582842d7e2a27b34d2f168dbdb1d2860e07610851be271f33e",
      "transactionType": "CALL",
      "contractName": null,
      "contractAddress": "0xB464F4582e62F6eB3CF506E4135f92BD198EB03E",
      "function": "mint(address)",
      "arguments": [
        "0x9A3A5EdDDFEe1E3A1BBef6Fdf0850B10D4979405"
      ],
      "transaction": {
        "type": "0x02",
        "from": "0x9a3a5edddfee1e3a1bbef6fdf0850b10d4979405",
        "to": "0xb464f4582e62f6eb3cf506e4135f92bd198eb03e",
        "gas": "0x1327c",
        "value": "0x0",
        "data": "0x6a6278420000000000000000000000009a3a5edddfee1e3a1bbef6fdf0850b10d4979405",
        "nonce": "0x61",
        "accessList": []
      },
      "additionalContracts": [],
      "isFixedGasLimit": false
    },
    {
      "hash": "0xbac07287e14bda0c161ac0db2adb7d8d10b6690ccef73768ca5d570619ba2431",
      "transactionType": "CALL",
      "contractName": null,
      "contractAddress": "0xB464F4582e62F6eB3CF506E4135f92BD198EB03E",
      "function": "mint(address)",
      "arguments": [
        "0x9A3A5EdDDFEe1E3A1BBef6Fdf0850B10D4979405"
      ],
      "transaction": {
        "type": "0x02",
        "from": "0x9a3a5edddfee1e3a1bbef6fdf0850b10d4979405",
        "to": "0xb464f4582e62f6eb3cf506e4135f92bd198eb03e",
        "gas": "0x1327c",
        "value": "0x0",
        "data": "0x6a6278420000000000000000000000009a3a5edddfee1e3a1bbef6fdf0850b10d4979405",
        "nonce": "0x62",
        "accessList": []
      },
      "additionalContracts": [],
      "isFixedGasLimit": false
    },
    {
      "hash": "0x159754470a584561bfd81fb3b868f82a07c91d2af10833a9a78cce87ec824148",
      "transactionType": "CALL",
      "contractName": null,
      "contractAddress": "0xB464F4582e62F6eB3CF506E4135f92BD198EB03E",
      "function": "mint(address)",
      "arguments": [
        "0x9A3A5EdDDFEe1E3A1BBef6Fdf0850B10D4979405"
      ],
      "transaction": {
        "type": "0x02",
        "from": "0x9a3a5edddfee1e3a1bbef6fdf0850b10d4979405",
        "to": "0xb464f4582e62f6eb3cf506e4135f92bd198eb03e",
        "gas": "0x1327c",
        "value": "0x0",
        "data": "0x6a6278420000000000000000000000009a3a5edddfee1e3a1bbef6fdf0850b10d4979405",
        "nonce": "0x63",
        "accessList": []
      },
      "additionalContracts": [],
      "isFixedGasLimit": false
    },
    {
      "hash": "0x7840e29f3af7c0f690f4f9a3ca1c22e517325320b15ef1cd001c3541c2d36cb0",
      "transactionType": "CALL",
      "contractName": null,
      "contractAddress": "0xB464F4582e62F6eB3CF506E4135f92BD198EB03E",
      "function": "mint(address)",
      "arguments": [
        "0x9A3A5EdDDFEe1E3A1BBef6Fdf0850B10D4979405"
      ],
      "transaction": {
        "type": "0x02",
        "from": "0x9a3a5edddfee1e3a1bbef6fdf0850b10d4979405",
        "to": "0xb464f4582e62f6eb3cf506e4135f92bd198eb03e",
        "gas": "0x1327c",
        "value": "0x0",
        "data": "0x6a6278420000000000000000000000009a3a5edddfee1e3a1bbef6fdf0850b10d4979405",
        "nonce": "0x64",
        "accessList": []
      },
      "additionalContracts": [],
      "isFixedGasLimit": false
    },
    {
      "hash": "0xf7d89ce40dd9e10aaa63686105def775f9acc864648b2c3c23992815f258253d",
      "transactionType": "CALL",
      "contractName": null,
      "contractAddress": "0x0baA92F82d8992Ff152047f29084079c263BE7F7",
      "function": "registerRootIp(uint256,address,uint256)",
      "arguments": [
        "0",
        "0xB464F4582e62F6eB3CF506E4135f92BD198EB03E",
        "17"
      ],
      "transaction": {
        "type": "0x02",
        "from": "0x9a3a5edddfee1e3a1bbef6fdf0850b10d4979405",
        "to": "0x0baa92f82d8992ff152047f29084079c263be7f7",
        "gas": "0x3e604",
        "value": "0x0",
        "data": "0xa38f3a7b0000000000000000000000000000000000000000000000000000000000000000000000000000000000000000b464f4582e62f6eb3cf506e4135f92bd198eb03e0000000000000000000000000000000000000000000000000000000000000011",
        "nonce": "0x65",
        "accessList": []
      },
      "additionalContracts": [
        {
          "transactionType": "CREATE2",
          "address": "0x48f92b757e47e367fD73C91B7392967B9B095dEb",
          "initCode": "0x3d60ad80600a3d3981f3363d3d373d3d3d363d7367df68ae71e9ebbd9c6ddfc18b7983540fee6eb95af43d82803e903d91602b57fd5bf300000000000000000000000000000000000000000000000000000000000000000000000000000000000000000000000000000000000000000000000000aa36a7000000000000000000000000b464f4582e62f6eb3cf506e4135f92bd198eb03e0000000000000000000000000000000000000000000000000000000000000011"
        }
      ],
      "isFixedGasLimit": false
    },
    {
      "hash": "0x5f32d724d6e05417b98a57949ddd735ba519b57f6cce63504140fec853cf2d63",
      "transactionType": "CALL",
      "contractName": null,
      "contractAddress": "0x0baA92F82d8992Ff152047f29084079c263BE7F7",
      "function": "registerRootIp(uint256,address,uint256)",
      "arguments": [
        "0",
        "0xB464F4582e62F6eB3CF506E4135f92BD198EB03E",
        "18"
      ],
      "transaction": {
        "type": "0x02",
        "from": "0x9a3a5edddfee1e3a1bbef6fdf0850b10d4979405",
        "to": "0x0baa92f82d8992ff152047f29084079c263be7f7",
        "gas": "0x3e604",
        "value": "0x0",
        "data": "0xa38f3a7b0000000000000000000000000000000000000000000000000000000000000000000000000000000000000000b464f4582e62f6eb3cf506e4135f92bd198eb03e0000000000000000000000000000000000000000000000000000000000000012",
        "nonce": "0x66",
        "accessList": []
      },
      "additionalContracts": [
        {
          "transactionType": "CREATE2",
          "address": "0x7cb24bF62aF6cC16257b80B0D86D96290613A529",
          "initCode": "0x3d60ad80600a3d3981f3363d3d373d3d3d363d7367df68ae71e9ebbd9c6ddfc18b7983540fee6eb95af43d82803e903d91602b57fd5bf300000000000000000000000000000000000000000000000000000000000000000000000000000000000000000000000000000000000000000000000000aa36a7000000000000000000000000b464f4582e62f6eb3cf506e4135f92bd198eb03e0000000000000000000000000000000000000000000000000000000000000012"
        }
      ],
      "isFixedGasLimit": false
    },
    {
      "hash": "0x0dad2457690cba81305385e9ad9a1f1f21116529dbd3001dd4ecc45f6d865103",
      "transactionType": "CALL",
      "contractName": null,
      "contractAddress": "0xB76441f5802DBfA7244C904871F3747E371C3C78",
      "function": "setGlobalPermission(address,address,bytes4,uint8)",
      "arguments": [
        "0x0baA92F82d8992Ff152047f29084079c263BE7F7",
        "0x32f0471E404096B978248d0ECE3A8998D87a4b67",
        "0x0000000000000000000000000000000000000000000000000000000000000000",
        "1"
      ],
      "transaction": {
        "type": "0x02",
        "from": "0x9a3a5edddfee1e3a1bbef6fdf0850b10d4979405",
        "to": "0xb76441f5802dbfa7244c904871f3747e371c3c78",
        "gas": "0x8fed",
        "value": "0x0",
        "data": "0x9f1ac51d0000000000000000000000000baa92f82d8992ff152047f29084079c263be7f700000000000000000000000032f0471e404096b978248d0ece3a8998d87a4b6700000000000000000000000000000000000000000000000000000000000000000000000000000000000000000000000000000000000000000000000000000001",
        "nonce": "0x67",
        "accessList": []
      },
      "additionalContracts": [],
      "isFixedGasLimit": false
    },
    {
      "hash": "0x56f604ce4e4404412aa73843b0014a3c7b40e8dc07c1af75eee4ff6e6354d396",
      "transactionType": "CALL",
      "contractName": "IPMetadataProvider",
      "contractAddress": "0x48f92b757e47e367fD73C91B7392967B9B095dEb",
      "function": null,
      "arguments": null,
      "transaction": {
        "type": "0x02",
        "from": "0x9a3a5edddfee1e3a1bbef6fdf0850b10d4979405",
        "to": "0x48f92b757e47e367fd73c91b7392967b9b095deb",
        "gas": "0x2f4b8",
        "value": "0x0",
        "data": "0xb61d27f6000000000000000000000000b76441f5802dbfa7244c904871f3747e371c3c780000000000000000000000000000000000000000000000000000000000000000000000000000000000000000000000000000000000000000000000000000006000000000000000000000000000000000000000000000000000000000000000a47bac65fd00000000000000000000000048f92b757e47e367fd73c91b7392967b9b095deb0000000000000000000000009a3a5edddfee1e3a1bbef6fdf0850b10d497940500000000000000000000000032f0471e404096b978248d0ece3a8998d87a4b670000000000000000000000000000000000000000000000000000000000000000000000000000000000000000000000000000000000000000000000000000000100000000000000000000000000000000000000000000000000000000",
        "nonce": "0x68",
        "accessList": []
      },
      "additionalContracts": [],
      "isFixedGasLimit": false
    }
  ],
  "receipts": [],
  "libraries": [],
  "pending": [
    "0x11a6faf7cb6492582842d7e2a27b34d2f168dbdb1d2860e07610851be271f33e",
    "0xbac07287e14bda0c161ac0db2adb7d8d10b6690ccef73768ca5d570619ba2431",
    "0x159754470a584561bfd81fb3b868f82a07c91d2af10833a9a78cce87ec824148",
    "0x7840e29f3af7c0f690f4f9a3ca1c22e517325320b15ef1cd001c3541c2d36cb0",
    "0xf7d89ce40dd9e10aaa63686105def775f9acc864648b2c3c23992815f258253d",
    "0x5f32d724d6e05417b98a57949ddd735ba519b57f6cce63504140fec853cf2d63",
    "0x0dad2457690cba81305385e9ad9a1f1f21116529dbd3001dd4ecc45f6d865103",
    "0x56f604ce4e4404412aa73843b0014a3c7b40e8dc07c1af75eee4ff6e6354d396"
  ],
  "returns": {},
  "timestamp": 1706335942,
  "chain": 11155111,
  "multi": false,
  "commit": "8836092"
}